:020000040007F3
:10A00000185400205DA5070065A5070067A5070097
:10A0100069A507006BA507006DA5070000000000FB
:10A0200000000000000000000000000015A4070070
:10A0300071A507000000000073A5070075A50700C3
:10A0400077A5070077A5070077A5070077A5070084
:10A0500077A5070077A5070077A5070077A5070074
:10A0600077A5070077A5070077A5070077A5070064
:10A0700077A5070077A5070077A5070077A5070054
:10A0800077A50700CDA6070077A5070077A50700ED
:10A09000E5A6070077A50700E9A6070077A5070052
:10A0A00077A5070077A5070077A5070077A5070024
:10A0B00077A5070077A5070000000000000000005A
:10A0C00077A5070077A5070077A5070077A5070004
:10A0D00077A5070077A5070077A507000000000017
:10A0E0000000000000000000000000000000000070
:10A0F0000000000000000000000000000000000060
:10A10000000000000000000000000000000000004F
:10A11000000000000000000000000000000000003F
:10A40000DFF80CD000F0EEF80048004799CA0700CA
:10A41000185400200648704502D1EFF3098101E08D
:10A42000EFF30881886902380078024A104700007B
:10A43000FDFFFFFF09A60700401E00BF00BF00BFD1
:10A4400000BF00BF00BF00BF00BF00BF00BF00BF14
:10A4500000BF00BF00BF00BF00BF00BF00BF00BF04
:10A4600000BF00BF00BF00BF00BF00BF00BF00BFF4
:10A4700000BF00BF00BF00BF00BF00BF00BF00BFE4
:10A4800000BF00BF00BF00BF00BF00BF00BF00BFD4
:10A4900000BF00BF00BF00BF00BF00BF00BF00BFC4
:10A4A00000BF00BF00BF00BF00BFC5D170470000A4
:10A4B000401E00BF00BF00BF00BF00BF00BF00BF05
:10A4C00000BF00BF00BF00BF00BF00BF00BF00BF94
:10A4D00000BF00BF00BF00BF00BF00BF00BF00BF84
:10A4E00000BF00BF00BF00BF00BF00BF00BF00BF74
:10A4F00000BF00BF00BF00BF00BF00BF00BF00BF64
:10A5000000BF00BF00BF00BF00BF00BF00BF00BF53
:10A5100000BF00BF00BF00BF00BF00BF00BF00BF43
:10A5200000BFC5D170470000056885F30888406802
:10A53000FF2464B2EFF30585002D01D1A646004744
:10A540002546064621273FBAF0B400240025002600
:10A550000027F0B4F92040B20047000006488047C9
:10A5600006480047FEE7FEE7FEE7FEE7FEE7FEE7F8
:10A57000FEE7FEE7FEE7FEE70DA7070001A40700E0
:10A5800040EA01039B0703D009E008C9121F08C075
:10A59000042AFAD203E011F8013B00F8013B521EF5
:10A5A000F9D27047D2B201E000F8012B491EFBD26C
:10A5B00070470022F6E710B513460A4604461946CE
:10A5C000FFF7F0FF204610BD30B5044600200346DB
:10A5D00000E05B1C934203D2E05CCD5C401BF8D0F2
:10A5E00030BD0000064C074D06E0E06840F0010376
:10A5F00094E8070098471034AC42F6D3FFF704FF05
:10A6000034D9070054D9070010B50C4610B1012009
:10A61000086010BD216891B11148421A814213D0DF
:10A620003C2A0ED23C303C315FF0010211F8013976
:10A6300000F801391346521C3C2BF7D904E00E20D8
:10A640000BE03C22FFF79CFF00223C21044801F074
:10A650004BFA0349891E08800020206010BD0000CD
:10A6600082FF002000F01F020121914040094FF0BD
:10A67000E02202EB8000C0F88012704700F01F0259
:10A680000121914040094FF0E02202EB8000C0F828
:10A690000011704700F01F020121914040094FF066
:10A6A000E02202EB8000C0F8001270474907090E53
:10A6B000002803DA00F00F00024A00E0024A815449
:10A6C0007047000014ED00E000E400E004480021C1
:10A6D000016441648164C1640160416002F0B8BFFB
:10A6E0000011014002F050BF074810B5406830B17A
:10A6F0008047002807D0BDE8104000F043BBBDE80C
:10A70000104002F08BB810BDB82C002070B58A48FC
:10A710000023021D0178101D0124062907D1157898
:10A720002D0704D10578C5F30315032D02D00629A2
:10A7300004D00FE0824E814D75670EE015782D072D
:10A7400008D10578C5F30315032D06D0042D04D0D8
:10A75000052D02D0062907D00EE07A4D2D687A4EDD
:10A76000C5F34235356002E015782D0704D1057830
:10A77000C5F30315032D02D0062906D011E0734D51
:10A780002E6826F080762E600EE015782D0708D111
:10A790000578C5F30315032D06D0042D04D0052D2F
:10A7A00002D0062907D00EE0694D2B606B60664D24
:10A7B0002D1F2B6002E015782D0704D10578C5F315
:10A7C0000315032D02D0062905D00CE05E4A0321B3
:10A7D000643211600AE015782D0704D10578C5F3BD
:10A7E0000315032D02D006290DD06AE0594A052130
:10A7F0001160584978310C60564908310B603F218F
:10A80000121D116002E0117809075AD10078C0F3D7
:10A810000310052855D150480068504908604E483B
:10A82000001D0068091D08604B4808300068091DBC
:10A83000086049480C300068091D0860464810301F
:10A840000068091D0860444814300068091D08604C
:10A850004148183000684149203108603E481C30AA
:10A860000068091D08603C4820300068091D086028
:10A87000394824300068091D0860374828300068CE
:10A88000091D086034482C300068091D08603248F2
:10A89000303000683149403108602F48343000685A
:10A8A000091D08602C4838300068091D08602A48D6
:10A8B0003C300068091D0860274840300068091DC9
:10A8C000086022487438016841F470010160BFF3E8
:10A8D0004F8FBFF36F8F4FF01021D1F80002002887
:10A8E00003DBD1F80402002821DA1D4A14601D4858
:10A8F0000468002CFCD01524C1F800420568002D26
:10A90000FCD0C1F8044201680029FCD01360016842
:10A910000029FCD0BFF34F8F0C48F0380168124A71
:10A9200001F4E06111430160BFF34F8FFEE710496E
:10A930000E48086070BD0000E00F00F00DF0ADBAE9
:10A9400000C00740440200103C050040FCED00E060
:10A950000C010040105600400404001020C50040C7
:10A9600004E5014000E401400400FA050090D00332
:10A97000002C002002E008C8121F08C1002AFAD1EA
:10A9800070477047002001E001C1121F002AFBD16F
:10A9900070472DE9FC5F0025168807461580406B3F
:10A9A00014468946A8464FF00C0A11234FF0020BBB
:10A9B00098B101784846032E48D380F800B0228829
:10A9C000521C92B2228083542288521C92B222805E
:10A9D00009F802102088401C20803A6BDAB12088E8
:10A9E000494600F11205B54230D80B542088102397
:10A9F000401C80B220800B542088401C20800F20F7
:10AA00002388155C401ECD54238840B25B1C2380F4
:10AA10000028F5DA454697F82E0030B13346224635
:10AA2000494601F047FF050011D197F82D0030B1DC
:10AA300032462146484600F015FC050007D1B8789B
:10AA400020B32088C846001DB04202D95046BDE858
:10AA5000FC9F684679DF0028F9D12188032008F897
:10AA6000010020881921401C80B2208008F80010C5
:10AA70002088401C80B2208000EB0801BDF8000057
:10AA800002F028FE0146208808442080F878B8B1FA
:10AA9000228897F90310D31C4846B342D6D800F851
:10AAA00002B022880123521C92B222808354228851
:10AAB000521C92B2228009F802102088401C20808B
:10AAC0007868B8B1218890F90020CB1C4846B34281
:10AAD000BCD800F801B021880A23491C89B2218022
:10AAE00043542188491C89B2218009F8012020881B
:10AAF000401C2080388950B1CDE900464B460622E3
:10AB0000022107F1080002F055FE05009FD1388AA6
:10AB100050B1CDE900464B460722032107F1100052
:10AB200002F048FE050092D1388B50B1CDE90046C5
:10AB30004B461522142107F1180002F03BFE0500D8
:10AB400085D1386A30B133462246494600F058FF75
:10AB50000500DBD1786A30B133462246494602F01F
:10AB60002BF80500D2D197F82C0038B13346224695
:10AB70004946384602F022FC0500C7D1387838B182
:10AB8000334622464946384602F048F80500BDD112
:10AB900028465CE710B50446114890B0382180790A
:10ABA0008DF83A0041F23050ADF838006846FFF7B2
:10ABB00000FD02208DF8000000208DF80200012029
:10ABC000ADF808000EA803908DF8034000216846F8
:10ABD00000F0A0FA002801D000F0D4F810B010BDA9
:10ABE000643200202DE9F043284C8BB0A078002877
:10ABF00038D118212648FFF7DCFCA046E078244C29
:10AC000000254FF02809012678B304F14807009584
:10AC10000195029510226946F81D0395FFF7D4FCB3
:10AC200020B3F81DCDE9080709A8049008A80690EC
:10AC30008DF814608DF81C600420FFF7ABFF2570C1
:10AC40000220207204A8E060A4F8109065821048E9
:10AC500073DF08B100F096F80E494FF40030086039
:10AC600088F802600BB0BDE8F08307E00520FFF72D
:10AC700091FF2670676025722582E7E70620FFF7BF
:10AC800089FF257065602572DEE70000902C0020AA
:10AC90004C3200200C0500502DE9FF410546087A92
:10ACA0000E4681070AD003221146284600F00AFC0E
:10ACB000002801D000F066F8BDE8FF812849009027
:10ACC00001F056FD010011D1254C7168143C009A29
:10ACD0006069FFF755FC009801F016FD010005D1F1
:10ACE00069461F4801F020FD010003D0284601F00D
:10ACF000BBF8E1E7042001900098800802906069A9
:10AD0000039001A801F07AF807000BD0092F10D0AA
:10AD1000606901F0C3FC010002D0284601F0A4F8EC
:10AD20003946E3E7307A2169084420616069A0610F
:10AD3000C2E7307A21690144216160780028BBD0E4
:10AD40006089401E0004000C6081B5D1284600F0E7
:10AD500081FB08B100F016F820896081ACE70000A3
:10AD6000A42C0020BFF34F8F04480168044A01F46B
:10AD7000E06111430160BFF34F8FFEE70CED00E08F
:10AD80000400FA050EB500210091CDE901106A46D4
:10AD900044F20100FFF7E6FF0EBD000038B50C4697
:10ADA000064BE268097853F8225062680092024626
:10ADB00004F10C006369A84738BD00005C31002035
:10ADC00070B50F4B054605201C785E78A64216D05C
:10ADD0001C7818789E88B04201DA401C00E0002000
:10ADE00018705E88D86804FB06002860986800EB3D
:10ADF000C4039B880B8050F834001060002070BDA5
:10AE0000282C00202DE9F84F254C81469246608879
:10AE10000E46814241D800274FF6FF788DF800702A
:10AE2000684600F03DF922786078A188884201DA0E
:10AE3000401C00E00020C0B2904204D19DF8000008
:10AE400000F050F927E065786078884201DA401C0C
:10AE500000E0002060709DF8000000F043F94545D7
:10AE600019D0A068B9F1000F40F835A00DD066B137
:10AE70006188E068324605FB01004946FFF780FB28
:10AE8000A06800EBC500868002E000EBC50087806B
:10AE90000020BDE8F88F0420FBE70920F9E7000057
:10AEA000282C00200EB504E0029ABDF8041000988A
:10AEB000904702AA01A96846FFF782FF0028F3D055
:10AEC0000EBD000030B5CB0008339DB293074FF0A4
:10AED000000401D0072030BD044B9A602A44DA6098
:10AEE0005C701C7058809980002030BD282C002098
:10AEF000074B9B6823B12AB120B10068037C1BB1CA
:10AF00000820704707207047417442610020704755
:10AF1000382C002010B50446082902D00020FFF785
:10AF200031FFD4E90010BDE8104008471CB5044AC1
:10AF3000CDE9000108216846FFF764FF1CBD000051
:10AF400015AF07002DE9F0478046994614460F4695
:10AF500090074FF0000634D11C4D8CB302F07AF903
:10AF60000320C5F81490287004F11800002107EBA5
:10AF70004703AC6004EBC102491C16705670977011
:10AF8000506000EBC3000329F4DBEE606E70AE701E
:10AF90001420FFF767FB06211420FFF787FB14201E
:10AFA000FFF76CFB0A49C1F8008006211120FFF76A
:10AFB0007DFB0748001F006828610020BDE8F0877E
:10AFC00001E00720FAE7AE60FBE70000382C002024
:10AFD000081501402DE9F843DFF86C900D4617463F
:10AFE000D9F80810044649B344B3052D02D207200E
:10AFF000BDE8F883606908B3607C012820D0002692
:10B0000002F0A6FBD9F80810804601EBC80069469B
:10B0100002F0BCFBB0B1012101700C494460096829
:10B020000830E2C0D9F8081001EBC8009DF8001004
:10B0300041701420FFF72EFB0020D9E70820D7E746
:10B040002E46DDE70420D3E7382C0020041501400C
:10B05000F8B5124E0446B168E1B1DCB16069C8B11F
:10B060000027277402F074FB0546B068694600EBC0
:10B07000C50002F08BFB78B1022101704460B0681A
:10B080009DF8001000EBC50041701420FFF702FB93
:10B090003846F8BD0820F8BD0420F8BD382C002043
:10B0A00030B5EFF3108172B60B4A9468012324B1D6
:10B0B0000370002900D162B630BD9360074B1D6854
:10B0C000074C254015601C605C6854605A175A6034
:10B0D00000220270EDE700000C34002080E100E067
:10B0E000FC06FFBC09498A68002A0ED000280CD152
:10B0F000EFF3108072B60B68054A13604B6853601B
:10B1000000228A60002800D162B670470C3400200B
:10B1100000E100E0F0B50C4693B01F210726ADF822
:10B120000010ADF80410002750B1C17849070DD5C3
:10B130006A4602A9FFF72DFC002808D102AD02E003
:10B140000025ADF800706CB1E07810B1304613B056
:10B15000F0BD01AA0AA92046FFF71BFC0028F6D182
:10B160000AAA02E00022ADF80470BDF80400C3B2E0
:10B17000BDF80000C1B2284672DFE8E770B50546A9
:10B1800001461C220F48FFF7FBF90F4C00262670E2
:10B19000286830B1016861604068A060201D7ADFD6
:10B1A00002E00948001D7BDF00280AD14FF6FF703E
:10B1B00060806670BDE87040044A00210448FFF7D3
:10B1C00097BE70BD4C300020042C0020F1D6070043
:10B1D000BCD8070070B51E4C068800251B49E289C3
:10B1E000102E15D01B4B112E1CD0122E29D0502EF4
:10B1F00017D130F8061F914213D14189022910D18D
:10B20000007B10F0010F11D0BDE8704000F03EBC93
:10B2100083884B808369CB60C06908614D70002AC8
:10B22000F2D070BD4FF6FF7048804D701868FFF780
:10B230000FFF0028F5D0A1690029F2D0BDE87040C9
:10B2400008478268CA60C0680861DDE7042C0020F6
:10B250004C300020BCD8070001480068FFF7F8BE5A
:10B26000BCD807007CB5054608880C4609309042DA
:10B2700001D90C207CBD684671DF0028FAD12188F5
:10B280000820685420881B21401C80B2208029544B
:10B290002088401C80B220802844DDF80110016025
:10B2A000BDF8051081802088801D80B220809DF827
:10B2B000001001B1012129542088401C2080002069
:10B2C0007CBD0000F0B585B00A4605002FD0288867
:10B2D000A0F57F41FF392CD01748007848B3164CB1
:10B2E0001020641C0127207007206070A7700320C5
:10B2F000ADF810000026E11C104602F0F0F9BDF890
:10B30000101000960844ADF81000019602960396BE
:10B31000288AADF8000004A8CDE902048DF8027077
:10B32000ADF8046028886946A6DF05B0F0BD0E20A0
:10B33000FBE70820F9E70000182C002030B585B0A5
:10B340000D4604003AD0C5B36868B0B31C4B4FF645
:10B35000FF7020800FCB0DF1040CACE80F0041F220
:10B360003050ADF800000DF1020101A863DF0028A4
:10B3700021D1221D69460120A0DF00281BD19DF8A4
:10B380000200A071204600F095FE002813D120464F
:10B3900000F0E5FC00280ED12946204600F016FFFB
:10B3A000002808D16868A062A86800B1E062054979
:10B3B00001200870002005B030BDFFE70E20FAE73D
:10B3C000C0D80700182C00203EB500283CD000292A
:10B3D0003AD0826A002A37D00A88102A23D0112A4C
:10B3E00033D0502A21D0512A2ED104460A4611F8D2
:10B3F000060F022828D14888238A984224D1907BBE
:10B40000042821D006281FD005281DD0891C2046DD
:10B4100001F05AFD002817D0E16A002914D003B0CA
:10B42000BDE830400847898811E0CA8803899A42FC
:10B430000AD108228DF800200A7C12318DF80820EC
:10B440000191826A694690473EBD4FF6FF710180C7
:10B450003EBD0000F0B585B00A4605002BD0288817
:10B46000A0F57F41FF3928D01548007828B3144C47
:10B470001120641C012720700026ADF81070611C9B
:10B48000104602F02CF9BDF8101000960844ADF8F3
:10B490001000019602960396288AADF8000004A8D1
:10B4A000CDE902048DF80270ADF804602888694681
:10B4B000A6DF05B0F0BD0E20FBE70820F9E700008D
:10B4C000182C002030B585B028B30388A3F57F443D
:10B4D000FF3C22D0124B1B78FBB1114B10255B1C9B
:10B4E00000241D7059709A7001250321ADF81010C9
:10B4F0000094019402940394018AADF8001004A909
:10B50000CDE902138DF80250ADF804400088694679
:10B51000A6DF05B030BD0E20FBE70820F9E70000EC
:10B52000182C002010B50446FFF754FE21460448AD
:10B53000FFF74AFF2046BDE8104001F007BC0000BD
:10B540006432002030B51C498BB00A1D0DF1140C7B
:10B550003CCAACE83C000968099120B105A818DF95
:10B5600008B1FFF70FFC4FF4F42013DF08B1FFF729
:10B5700009FC124B4822124909A801F09FFF08B1AB
:10B58000FFF700FC01216A46084601F071FF08B18F
:10B59000FFF7F8FB01208DF80C00684601F05EFF14
:10B5A00008B1FFF7EFFB074801F0A2FF002801D028
:10B5B000FFF7E8FB0BB030BDA8D80700A9D40700FF
:10B5C000942E002085D5070038B50068401C18D09F
:10B5D0000024684600F048F90098017801290FD14D
:10B5E000418851B181684FF440500022806800F0DA
:10B5F0007BFA00994988814201D1012400E00024AE
:10B60000204638BD70B511DF08B1FFF7BBFB4FF026
:10B61000E0220020D2F800415FF0010505FA00F3B6
:10B62000234209D043B203F01F0605FA06F15B0975
:10B6300002EB8303C3F88011401C2028EED34FF4A3
:10B640004054A06813DF08B1FFF79CFBA068BDE879
:10B65000704000F007B908B5684600F005F9009899
:10B660000178A52904D00079AA2801D0002008BDBE
:10B67000012008BD10B500F035FE18B900F0CEFA73
:10B68000002813D0642001F017FB00F0EEFD08B194
:10B69000FFF778FB00F026FE08B1FFF773FB00F020
:10B6A0009BFA040001D0FFF76DFB204610BD00009F
:10B6B00000B587B01422084901A8FEF761FF05987C
:10B6C0000DF1040C0090BCE80F0000F013F802F03C
:10B6D000D9F807B0002000BDDCD8070010B500F095
:10B6E0000FFC002805D100F007FF044602F0CAF85D
:10B6F000204610BD2DE9F84304460E4617461D4668
:10B700006846DDF8208000F0AFF814F0FF024FEA41
:10B7100014412F4C2F484FF001034FF0FF0C10D075
:10B72000012A14D0032A23D00021022A2DD0052A71
:10B730003FD0042A44D0062A01D104202070BDE85D
:10B74000F88341808560037080F804C00BE041807D
:10B75000F11929448160A521017080F804C0C0F866
:10B760001880C6600EE023701A4800F063F8E6E720
:10B7700000990A7802704A88428089688160AA210B
:10B780000171C660C0E90475EDE7009A1578A52D32
:10B790000AD00570558845809268826080F804C0A0
:10B7A000C16001614161DEE74180816080F800C0D5
:10B7B000F4E700F07DFE08B1FFF7E4FA0320BDE7EF
:10B7C0004180816080F800C0009909790171CBE760
:10B7D000582C0020683100200EB5084A07CA8DE8B1
:10B7E000070001F09BFC002806D105494FF4FE201C
:10B7F0004860684601F0B2FC0EBD0000D0D80700DA
:10B800005C2C002038B50446684600F02DF80098FE
:10B8100001782170418861808168A160017921717E
:10B82000C168E16001692161416961618069A0616C
:10B8300038BD000010B504461C21094801F064FC25
:10B8400008B1FFF79FFA00231C222146044801F0AB
:10B8500099FC002803D0BDE81040FFF793BA10BD53
:10B860005C2C0020FEF760BE0149016070470000BB
:10B8700000F0070070B5174C0F20217801EB410153
:10B8800004EBC102121D1449157813694968012D92
:10B890000ED0032D0BD14FF08050006980B2B3FB66
:10B8A000F0F0084428DF002801D10121A17070BD0B
:10B8B0000803516856690D1A3118926818441044EB
:10B8C000B5F5805F02D2AA0829DFECE74FF4806269
:10B8D00029DFE8E768300020202C002000EB400240
:10B8E0000548002100EBC200032201718160C0E91C
:10B8F00004218161C1607047683000202DE9F0416A
:10B90000134C069E65780A2D1FD027783D44EDB272
:10B910000A2D01D30A3DEDB205EB450504EBC50543
:10B920002871AA61D1E90001C5E90401C5E902361F
:10B93000A178002021B9FFF79DFF112800D1002038
:10B940006178491C6170BDE8F0810420FBE70000CC
:10B95000683000202DE9F05F2648C168F1B3DFF8B8
:10B9600098B00E688146DBF800400769C078E11B9B
:10B9700021F07F45ED1CB0B9DFF880804FF48030B6
:10B98000C8F84403C8F804031120FEF76BFE112029
:10B99000FEF774FE4FF0010AC8F800A02F20FEF752
:10B9A00087FD89F803A0B54200D23546124BE8194D
:10B9B0003C3320F07F401860DBF800105A46091B2A
:10B9C00021F07F41001BC91C20F07F4081420FD92C
:10B9D000106818602F20FEF76BFD00E004E0BDE862
:10B9E000F05F1120FEF756BEBDE8F05F01F032BCFB
:10B9F000BDE8F09F382C00200415014000100140E4
:10BA00002DE9F04117880646B81D14460D469842A8
:10BA100002D90C20BDE8F0813188072206290AD31B
:10BA20004FF4486C4FF6FF73614501D9994202D13A
:10BA30007088062801D21046ECE7604501D998428B
:10BA4000F9D1994203D0984201D08142F3D8052020
:10BA5000E85520881221401C80B22080295420887B
:10BA6000401C80B220804119308801F033FE2188CB
:10BA7000084480B220804119708801F02BFE218893
:10BA8000084420800020C5E7FFF77CB9F8B51348CB
:10BA900000F0FCFE114D0026114C0C3D30B16169E7
:10BAA000B9B101208DF80000684611E0287820B176
:10BAB000616971B18DF80060F6E7687858B1A168E6
:10BAC000084800220068FFF785FA10B1A16901B1AA
:10BAD00088472E70F8BD6168F2E70000102C002046
:10BAE0004C300020BCD8070010B5044612B11088B5
:10BAF000002211E04FF6FF70FAE7030A43EA002341
:10BB0000A05C5840C0F30313584080EA003080B274
:10BB1000C3B280EA4310521C8A42EED310BD00002B
:10BB200030B5164C87B01648E16801F0EDFA08B15F
:10BB3000FFF728F91248E268083800234168083006
:10BB400001F020FB050015D1142101A8FEF731FDFD
:10BB500000208DF804000A480DF1040C203880887C
:10BB6000ADF80600E068049005980090BCE80F006E
:10BB7000FFF7C0FD07B0284630BD0000A43100200B
:10BB8000842C0020032161F3070008B50549064B0A
:10BB9000898861F31F400ECB0094FFF7ABFD0020B6
:10BBA00008BD0000642C0020A8310020012138B518
:10BBB00061F307000649074B898861F31F404FF482
:10BBC00040518C680ECB0094FFF794FD002038BDE7
:10BBD000642C0020A831002000B58BB004A8FFF72A
:10BBE00011FE089800280CD0079860B107990A98B0
:10BBF00008440021CDE900100898800802906846AA
:10BC000018DF0BB000BD4FF440508068C0F5F42140
:10BC1000C1F30C02891A00EB5100EAE700B58BB0C2
:10BC200004A8FFF7EFFD089800280FD0079878B117
:10BC300007990A980844032100914FF4F421CDE9B3
:10BC40000110089880080390684618DF0BB000BD0B
:10BC50004FF440508068C0F5F421C1F30C02891AFA
:10BC600000EB5100E7E7000070B504000BD00022A4
:10BC70003C210B48FFF738FF094DAD1E298888424B
:10BC800003D00B2070BD0E2070BD3C22044920461D
:10BC9000FEF776FC2888401C2880002070BD00003C
:10BCA00082FF002070B515460A4603281FD00428DD
:10BCB00024D1134C39B1E088A0F57F41FF391DD064
:10BCC000132176DF0DE0284600F0E8FC08B1FFF70D
:10BCD00059F8A069A84211D1012203210948FFF7B0
:10BCE000F1FB00280AD0BDE87040FFF74BB80121F6
:10BCF000104600F0EEFF02460121EFE770BD0000A4
:10BD0000902C00206432002000B587B0142207492F
:10BD100001A8FEF735FC05980DF1040C0090BCE875
:10BD20000F00FFF7E7FC07B000BD0000F4D80700E4
:10BD300070471FB503230093CDE9010190080390DC
:10BD4000684618DF04B010BD1FB501230093CDE98C
:10BD5000010190080390684618DF04B010BD30B5AB
:10BD60008FB005461C216846FEF723FC00249DF891
:10BD70000000019440F018008DF800000394049432
:10BD800005940694A8798DF8360041F23150ADF84B
:10BD900034000C949DF83000142120F0FF008DF841
:10BDA00030009DF8310020F00F00401C20F0F00022
:10BDB00010308DF831009DF8320020F00600801C14
:10BDC00020F0080040F011008DF8320007A8FEF7BF
:10BDD000F0FB0DA807900CA80890ADF824401720A0
:10BDE000ADF82640ADF828000B94A88805F11003A3
:10BDF00007AA6946A2DF0FB030BD000070B505008C
:10BE000004D0287A800703D0102070BD0E2070BDAA
:10BE1000144C6078032803D0042801D0052801D0F1
:10BE2000082070BD6868E1688600A06830448842D8
:10BE300004D94FF0FF30A0600C2070BD00F01AFB59
:10BE40000028FAD1A9683246A368206901F09AF95E
:10BE50000028F2D1A1683144A160E2689142ECD09F
:10BE6000092070BD642C002010B50A460446032149
:10BE7000104600F02EFF024603212046FFF722FB6A
:10BE8000002803D0BDE81040FEF77CBF10BD0000C5
:10BE9000094810B54078072801D0082010BD074890
:10BEA0000068FFF7D5F808B1FEF76CFF044880681A
:10BEB000BDE8104000470000642C0020F0D80700C7
:10BEC0003432002010B50D4C6078052813D1D4E928
:10BED000020188420FD10620607000F0CBFA0028E2
:10BEE00008D12069E168406800F092F8002801D18B
:10BEF0000721617010BD082010BD0000642C0020D7
:10BF0000FEB51D4E1D4C06F11800002507C88DE832
:10BF10000700A570A58004F12001684601F01EF914
:10BF200008B16570FEBD15494FF44050203180685E
:10BF30004860216AA161C0F5F421C1F30C02891A9D
:10BF400000EB51000D490E4A1831486000210A48A3
:10BF5000FEF7CEFF08B1FEF715FF00224FF4701177
:10BF60003068FFF737F808B1FEF70CFF0120A56035
:10BF700060700020FEBD0000F0D80700642C002097
:10BF800059C4070010B5094C0820A16801B110BDC3
:10BF900061780429FBD1A178054800F047F810B179
:10BFA0000021A17010BD0521617010BD642C00201E
:10BFB000B43100202DE9F041134C07466078032886
:10BFC00005D0042805D008252846BDE8F0810420C6
:10BFD0006070A06808B10820F7E700F04BFA050090
:10BFE000F3D178688600A0788119802901D90920C9
:10BFF000EBE7064AB96810443246FEF7C1FAA0786A
:10C000003044A070E0E70000642C0020B431002030
:10C0100010B50022FFF768FD03490988884201D066
:10C020000B2010BD002010BD4032002070B500254F
:10C030000C290ED343180189044600EB4101581A1C
:10C040000A38C2B21948022A027002D30A318B425E
:10C0500001D2092070BD1648FEF792FA4FF0102168
:10C060004FF6FF70B1F88020824202D023889342BD
:10C0700019D1B1F88210814202D06088884212D171
:10C0800020894FF6FE724FF44053A8420BD904EBBF
:10C0900045014989914204D09E896D1CB6B2B142D6
:10C0A000F3D1002070BD0B2070BD00008C2C00204F
:10C0B0004032002030B58FB005461C216846FEF79F
:10C0C00078FA00249DF80000019440F004008DF8F7
:10C0D00000000394049405940694A8798DF8360022
:10C0E00041F23250ADF834000C949DF83000142128
:10C0F00020F0FF008DF830009DF8310020F00F0097
:10C10000401C20F0F00010308DF831009DF8320016
:10C1100020F00600801C20F0180040F001008DF88F
:10C12000320007A8FEF745FA0DA807900CA8089062
:10C13000ADF824401420ADF82640ADF828000B944B
:10C14000A88805F1080307AA6946A2DF0FB030BD31
:10C15000084910B5A1F12000016102214170C168B8
:10C16000203000F0D1FF002803D0BDE81040FEF7DA
:10C1700009BE10BD842C00200C4910B5A1F1180097
:10C180000161022141704FF440508068C0F5F420F5
:10C19000C0F30C01401A4108044800F0B5FF002824
:10C1A00003D0BDE81040FEF7EDBD10BD7C2C002093
:10C1B0000149486170470000642C002038B506250D
:10C1C00065F307000094FFF795FA38BD70B58EB09F
:10C1D0000E4605461C216846FEF7EBF900249DF843
:10C1E0000000019440F002008DF8000003940494D4
:10C1F00005940694A8798DF8360041F23450ADF8D4
:10C2000034000C949DF83000142120F00F00401CE5
:10C2100020F0F00010308DF830009DF8310020F053
:10C22000FF008DF831009DF8320020F00600801CE0
:10C2300020F0180040F001008DF8320007A8FEF74A
:10C24000B8F90DA807900CA808900220ADF82400BA
:10C25000ADF82640ADF828000B96A88805F120031C
:10C2600007AA6946A2DF0EB070BD2DE9F04188B083
:10C270006846FFF7C7FA039800282BD0069A00F506
:10C2800080504FF48051904227D9A2F58050440845
:10C290001046039A00EB440687184FF440500D46B1
:10C2A000806801EB440890420ED204F580500422CD
:10C2B0000146FFF749FD00280CD129460422084613
:10C2C000FFF742FD002805D1BA1B23464146304600
:10C2D00000F037F808B0BDE8F081039A0698FFF740
:10C2E00033FDF7E730B58FB002A8FFF78BFA05985A
:10C2F000002817D0089A00F580504FF480519042E2
:10C3000016D9A2F58050430810464FF44054059AC0
:10C31000A468059D024400EB430001EB4301AC42DD
:10C3200002D20E200FB030BD121A00F00AF8F9E761
:10C330000BAB032007C3059880080E900BA818DFED
:10C34000F0E72DE9F0411C4617460D460646FFF77B
:10C35000F0FC002818D0B5F5805F07D92346291BCB
:10C36000301B1A46FFF7EDFF00280DD13A4629464B
:10C370003046FFF7E9FC002806D13A462946304608
:10C38000BDE8F041FFF7D5BCBDE8F08170B542686B
:10C390002848D2E90043D2E90212C0E90212C0E9FA
:10C3A00000430078440701D5840705D19C0703D1D9
:10C3B0008C0701D1940701D0062070BD1E4D0B449F
:10C3C0001A44EA60B1F5A04F1AD81A4CC3074FF4CB
:10C3D000405104F190040AD08868C0F5F4209042DE
:10C3E0000ED31648206016486060164813E089682E
:10C3F000C1F5F421C1F30C03C91AB2EB510F01D9F5
:10C400000C2070BD1049216010496160800701D582
:10C410000F4800E00F48A0606878012802D0082685
:10C42000304670BD00F026F80600FAD12168E868B1
:10C430008847F5E7A4310020642C002051C1070093
:10C4400009BD0700ADBB070079C1070031BD07007A
:10C4500085BB070021BB070068B5054E0125357077
:10C46000052565F307000094FFF744F968BD000057
:10C47000642C00200C4810B5007808B1082010BDCD
:10C480000A4C2068FEF7E4FD08B1FEF77BFC0022B1
:10C490004FF470112068FEF79DFD040001D0FEF7F7
:10C4A00071FC204610BD0000642C0020F0D807006D
:10C4B00010B5104C01202070E088A0F57F41FF39B5
:10C4C00005D0132176DF68B1FEF75CFC0AE0A078A6
:10C4D00040B174DF08B1FEF755FC112000F02EFCCE
:10C4E0000020A070FEF7B8FE08B1FEF74BFC00205C
:10C4F00010BD0000902C002030B5454D87B00024C1
:10C500002C702C71112000F011FC122000F00EFC98
:10C51000112000F013FC122000F010FC3D4800F048
:10C5200093FF00286FD13C48FFF742FE00F0A2F8CD
:10C53000002868D13948FFF797FB002865D0684686
:10C5400071DF08B1FEF71EFC9DF801006946401C32
:10C550008DF80100002070DF08B1FEF713FC9DF894
:10C5600008002FA120F00F00401C20F0F000103038
:10C570008DF80800072202A87CDF08B1FEF702FC54
:10C5800000940C20ADF8000018200194ADF80200D2
:10C59000ADF804404FF4C870ADF8060068467ADF85
:10C5A00008B1FEF7EFFB08200094ADF800001E482C
:10C5B00001901E480290194869463038FEF7BEFEC9
:10C5C00008B1FEF7DFFB1C216846FDF7F2FF40F6DD
:10C5D000CD40CDE900404FF48040029003208DF81B
:10C5E0000C001348ADF80E408DF81040CDE9054021
:10C5F0006846FEF7C3FD08B1FEF7C4FB00F09EFEDF
:10C60000FEF7F0FA002007B030BD0120E870A6E781
:10C61000902C002025B50700A5BC0700943200200F
:10C620004466755461726700C1CF070045D40700A6
:10C6300089BA07000E4910B54A788C780023A242C7
:10C6400012D0521CD2B24A70022A00D14B70084A52
:10C650004B78183252F8232002600869104420F009
:10C660007F400861012010BD0360002010BD000064
:10C67000382C002007480021074A017002F590700D
:10C6800002600822C0E90121C1600161416181614C
:10C6900008467047B12C0020D0320020F0B5194A6E
:10C6A0000646916861B355691020691A01F00701C7
:10C6B000D2F800700B46012401EBC10C07EB8C0C87
:10C6C000B44506D1956904FA01F6754000209561DC
:10C6D00004E0491C01F007018D42EDD1491C956928
:10C6E00001F0070104FA03F31D420AD19368002BFD
:10C6F00007D05B1E936053685B1C53600B46F1E7E9
:10C700000420F0BDF0330020064920230A7C09688C
:10C71000521E02F0070202EBC20203EB82028850B3
:10C7200000207047F033002070B5D0B1C9B10F4A76
:10C73000D368C3B15B1ED36093685B1C936053697D
:10C74000156803EBC30405EB84060660202000EBAC
:10C7500084005B1C2858086003F00700506100202B
:10C7600070BD0E2070BD042070BD0000F0330020AD
:10C7700010B5E9B100220A60104A5368E3B12028DD
:10C7800018D85B1E5360D068401CD06010691368D5
:10C7900000EBC00403EB84030B6001238340916929
:10C7A000401C194300F0070091611061002010BD8A
:10C7B0000E2010BD0C2010BD042010BDF033002051
:10C7C000FEB50446087A82070ED000F00302C2F1DB
:10C7D00004030022154604E04E683554401CC0B2E4
:10C7E000521C9A42F8D308720120009048680290C7
:10C7F000087A800801906846FFF7DCFB00280BD020
:10C80000022100F066FA024602212046FEF75AFE97
:10C81000002801D0FEF7B6FAFEBD0000F8B51A4CAC
:10C82000207800282ED0206928B10026E06820B1A9
:10C83000002526B110E00126F8E70125F9E7684652
:10C8400052DF052803D020B1FEF79CFA04E0012650
:10C8500002E021690098884785B96088ADF800003A
:10C860006946A06861DF052803D020B1FEF78AFA87
:10C8700004E0012502E0D4E902018847002EDED061
:10C88000002DD6D0F8BD0000B82C00200549408806
:10C890000A88904204D34988884201D80120704711
:10C8A00000207047082C0020800701D0002070472E
:10C8B0000120704730B51488E51C9D4201D90C2039
:10C8C00030BD02250D5513881C245B1C9BB21380C0
:10C8D000CC5413885B1C9BB21380012807D002281C
:10C8E00007D0032807D0042807D0072030BD002038
:10C8F00004E0012002E0CD5401E00320C854108878
:10C90000401C1080002030BD2DE9F047DFF8B0A0BA
:10C91000DAF80C009AF8004080469AF80460DAF8D9
:10C920000890DAF810703AE009EBC4052A7833E091
:10C9300002EB42016B68521C03EBC101AB78D2B22F
:10C94000934200D100220B78022B02D0032B23D17B
:10C950001FE0D1F804C00346014603E0614503D05F
:10C960000B46C969C1B1F9E7B1B18B4205D1C069C4
:10C9700018B9144F0126BE600027D1F800C0C9695C
:10C98000D96149B10B6863440B6005E00174C0696B
:10C9900000E000210028F9D169789142C8D1210036
:10C9A000A4F10104E4B2BFD1CAE903078AF8046024
:10C9B000404502D00120BDE8F0870020FBE70000E1
:10C9C000382C0020001001402DE9F0470546304882
:10C9D000002680460778D0F80C904BE0D8F8080085
:10C9E00000EBC70440E002D02846ED691EE0207845
:10C9F000616800EB4002401CC0B201EBC201207034
:10CA0000A278904200D126700A784868012A2DD178
:10CA1000027C5ABB8A684260CA6882600A69C26046
:10CA20004969816198F8041001B146604268D8F8FC
:10CA30001030DFF860C0D11A21F07F41614502D289
:10CA40008268114406E0991A826821F07F418A4287
:10CA500002D9511A016000E006604660012186603B
:10CA60000174C66100F0D6FD002DBCD1207861783C
:10CA70008842BCD13800A7F10107FFB2AED1D8F887
:10CA80000C10494502D00120BDE8F0870020FBE7EB
:10CA9000382C0020FFFF7F001CB5414801680027AB
:10CAA000B1294FD0002511241426012220460097D9
:10CAB00000231146019700F027F9641CB442F4D911
:10CAC000384E4FF4F01030604FF010204069B0F550
:10CAD000F42F02D00020FEF755F94FF08050006986
:10CAE000B0F5805F02D00020FEF74CF92E4B2F4AA4
:10CAF00005210020FEF726FA08B1FEF743F90323CB
:10CB0000CDE9007300221020114600F0FDF8FEF779
:10CB100063FEFEF7A0FD234F4FF400243F1DA0B19C
:10CB20003C60FEF7A7FD08B1FEF72CF90120FEF7E7
:10CB300009FD00F0ADFBFEF7BBFD08B1FEF722F9E1
:10CB4000346007E001250760ADE70120FEF7FAFC3D
:10CB500000F09EFB28004FF4405503D1A868FEF773
:10CB600033FD30B93C60FEF7B9FD08B1FEF70AF9B4
:10CB70003460A868FEF728FD28B1FEF76CFD10B9F7
:10CB8000A868FEF73FFDBFF34F8F09480168094AC7
:10CB900001F4E06111430160BFF34F8FFEE7000035
:10CBA0001C050040080500502DAF0700CC2C0020CC
:10CBB0000CED00E00400FA0570B5144682880546C5
:10CBC0000E46921C2088911C0144994201D8FE2AED
:10CBD00001D90C2070BD521C32542088FF21401C0A
:10CBE00080B2208031542088401C80B2208081197E
:10CBF000288800F06FFD2188084480B22080AA8830
:10CC000042B1A96841B13044FDF7BAFC2088A98837
:10CC100008442080002070BD072070BDF8B50E4686
:10CC2000017814460546012901D1687830B1208881
:10CC3000821C9A422DD8012902D006E00720F8BDB7
:10CC400069780144891C994223D8181A801E87B23A
:10CC5000ADF800702188B01C084469467DDF0028CB
:10CC6000EDD12878022805D1BDF80010B94201D8CD
:10CC700009210AE00821012805D16878B84202D8C4
:10CC8000ADF8000001E0ADF80070BDF80000FE282E
:10CC900001D90C20F8BD2288401CB0542088401CCB
:10CCA00080B2208031542088401C2080BDF80010C4
:10CCB000084420800020F8BD31B540F2E73404E09C
:10CCC000401E00902046FDF7B7FB00980028F7D1E2
:10CCD00038BD08280BD003DC38B106280FD108E096
:10CCE0000B280AD00C280AD105E001207047022049
:10CCF00070470320704704207047042901D00620A4
:10CD0000704705207047000030B541EA4201DDE977
:10CD1000034541EA8301044A41EA042141EA05410D
:10CD200042F8201030BD000000070050024A0321E5
:10CD300042F8201070470000000700500121814098
:10CD4000014801607047000008050050F0B55A4CDA
:10CD50000546008800270122E688A7B0192810D0D0
:10CD600024DC112843D00EDC022876D0102808D10C
:10CD70005249800308601120FFF7E0FFA888E08097
:10CD8000A77027B0F0BD4E49132801F1180446D012
:10CD90001428F6D1288A4A8D0026904200D12646D2
:10CDA0000023CA1DA888314686DF1BE0512865D0C4
:10CDB0000EDC1A287DD01B28E3D1287A0028E0D188
:10CDC000A770E068401EE06048D0FDF70BFFD8E791
:10CDD00052286ED05528D4D1A8790028D1D113215A
:10CDE000304676DF0028CCD0FDF7CCFFC9E78020A5
:10CDF000ADF894003220E0601220FFF79FFF01237E
:10CE000025AA01A9E088AADF08B1FDF7BBFF2078B9
:10CE100008B9FDF7E7FE4FF6FF70E080B1E728485C
:10CE2000C91D026805928288ADF8182080798DF8B6
:10CE30001A00102201A8FDF7A3FB1C22214610A80E
:10CE4000FDF79EFB01A80C901B4A10A81C320B900A
:10CE500007AB852130467FDFC4E70BE01422194978
:10CE600001A8FDF78DFB059801AC00900FCCFEF7F3
:10CE700041FC86E70021304667DFB3E7A979002946
:10CE8000A5D0A87B042803D0062801D005289ED170
:10CE900002290AD08DF884204FF4C170ADF88800C3
:10CEA00021A93046A8DF9DE703E002208DF8840029
:10CEB000F2E700F053FA95E7902C00200C050050A3
:10CEC0009432002020D90700F0B58BB001274FF035
:10CED000020E05468DF80CE08DF812700889ADF849
:10CEE00014004889ADF8160001F10C0000260896E0
:10CEF0000690ADF820E007A8ADF8226009900C4636
:10CF0000A98A288808AAA5DF18B1E96AC9B18847A3
:10CF100017E09DF81C0010F0010F12D0ADF8106062
:10CF2000288803A9A8DF002812D1217B04F10D0075
:10CF3000092943D2DFE801F0420E1D2326282A40AA
:10CF40002C0040F2FD10ADF81000288803A9A8DFDE
:10CF50000BB0F0BD8DF800600DE006221DE000BFB3
:10CF60008DF808700190AA6A69462846904700200B
:10CF7000EEE78DF800706289022AF1D2EDE78DF8B4
:10CF800000E0F0E7032012E0042010E005200EE0AE
:10CF90006089032805D2032208212846FEF792FA69
:10CFA000D6E7B4F80D00ADF8040018B106208DF8EE
:10CFB0000000D8E70720FAE70920F8E70322ECE7AA
:10CFC00070B504460D780120314A0A2D16D2DFE8EB
:10CFD00005F01F243A050D1651563D5AFEF772FF13
:10CFE0000421FFF776FE0246042123E0FFF760FAF2
:10CFF00008B1FDF7C7FEFEF74BFF28B970BDFFF77C
:10D0000057FA08B1FDF7BEFEBDE87040FFF7D6B88D
:10D01000107148680078507170BD02201071486826
:10D0200000780128F8D1FEF7ADFF0221FFF751FE8D
:10D03000024602212046FEF745FA0028ECD0BDE862
:10D040007040FDF79FBE0320107170BD127920461D
:10D05000012A07D0022A09D0032AF6D1BDE8704080
:10D06000FDF71ABEBDE8704000F04CBABDE8704054
:10D07000FFF7A6BB507088881081508170BD0020DA
:10D080005070108170BD20461169FEF71BF9D4E77E
:10D09000902C002006480378012B03D1012901D1EF
:10D0A00002210170100001D0FDF76CBE7047000036
:10D0B000582C002070B5124C1E4615466078012988
:10D0C00002D0032914D107E0052811D163697BB18F
:10D0D0003246294604200AE0022809D1094840685E
:10D0E000804703206070636913B132462946984730
:10D0F000280003D0BDE87040FDF744BE70BD0000BD
:10D10000642C00203432002008B50B460022014672
:10D1100003200092FEF7F2FB08BD000070B50D4E33
:10D1200000240D48746025460470447084702846BD
:10D13000FEF7D4FB6D1C0A2DF9D30749346000209B
:10D14000F431746041F82040401C0328FAD30020D9
:10D1500070BD0000202C002068300020074B1A68AA
:10D16000032A08D00A600649006841F82200521CD0
:10D1700000201A607047042070470000202C002017
:10D180005C310020F8B507461D4616460C46084699
:10D19000FFF78AFB58B16019FFF786FB38B13346B9
:10D1A0002246394601200095FEF7A8FBF8BD102065
:10D1B000F8BD000070B5254C06460022A078012875
:10D1C00042D100232146A3700D78022E05EB4500C5
:10D1D00001EBC00104D0032E36D1091D0D202FE034
:10D1E0001B484668761C46608968B1EB063F15D837
:10D1F00043606078401E6070681CC0B220700A28CE
:10D2000001D30A38207005EB450004EBC001091D6D
:10D210001046FDF7C3FD2846FEF760FB6078002846
:10D2200012D0A07800280FD1FEF724FB00280BD0E5
:10D23000112809D0217801EB410104EBC101091D3E
:10D24000BDE87040FDF7AABD70BD00006830002049
:10D25000202C002070B501260A48710400250160C9
:10D26000094C4810C4F84803C4F8080366602F202E
:10D27000FDF71EF9A660054C2F202561FDF718F972
:10D28000E57070BD80E100E000100140382C002006
:10D2900010B5064A14210820FDF714FE002803D01B
:10D2A000BDE81040FDF76EBD10BD0000DC2E002073
:10D2B00010B50121202803DA1C4A8140114004E006
:10D2C000402803DAA0F12002914031B1002807DAAA
:10D2D000174A00F00F01114404E042F2010010BDB2
:10D2E000144A811809784909082914D299B10129E9
:10D2F00011D004290FD005290DD00F498C6800F0FA
:10D300001F0301229A40400944B151F820301343D1
:10D3100041F8203008E042F2020010BD4FF0E02159
:10D3200001EB8000C0F80021002010BDFC06FFBC0E
:10D3300014ED00E000E400E00C3400200648017821
:10D3400021F07F01303121F080010170072141700F
:10D350001021817070470000AC2C002070B5154C76
:10D360004FF6FF75E088A84201D1082070BDE17832
:10D37000D1B1012308221049A9DF0028F6D10223E8
:10D3800000221146E088A9DF0028EFD12A460C21AF
:10D39000E088A7DFA0F54051023903D0082801D06A
:10D3A000891EE3D1002070BD00231A461946A9DF6B
:10D3B00070BD0000902C0020C83200202DE9F04103
:10D3C0000746806A14468846C8B3002531E000BF8E
:10D3D000B96A05EB450001EB8006B088801CFE2889
:10D3E00002D90C20BDE8F0812288401C08F8020018
:10D3F00020881622401C80B2208008F80020208857
:10D40000401C80B2208000EB0801308800F062F9F7
:10D410002188084480B22080B28842B1B16871B1DD
:10D420004044FDF7ADF82088B188084420806D1C89
:10D43000EDB297F82C00A842CAD80020D2E7FFE747
:10D440000720CFE7FDF79EBC18B10349C860002054
:10D4500070470E2070470000B82C00201CB503490F
:10D4600001910091694660DF1CBD0000002C002086
:10D4700070B50E460546144614211046FDF799F87E
:10D48000012020800021216121732672657205B17F
:10D49000A072002070BD10B511B10020FDF772FC24
:10D4A000BDE81040FFF7BAB90021024A0846FDF76F
:10D4B000A9BC000097D40700FDF754BC30B409B1F3
:10D4C0008C0702D0072030BC7047074C0125A160B3
:10D4D00062800649636010DF0028F4D1257030BCFB
:10D4E0001620FFF7E5BE0000B82C0020B9D40700D5
:10D4F00018B103490861002070470E2070470000F2
:10D50000B82C002010B588B004460020009001908F
:10D510000290039019481A4A40798DF8000010686B
:10D52000926804906846CDE90502087A0C2805D077
:10D5300003221CE0FDF726FC08B010BD4868C27845
:10D54000016862F31F610191C279416862F31F6152
:10D550000291C17A806861F31F60039004A8FEF70E
:10D5600015FF0028E8D00121FFF7B3FB0246012197
:10D570002046FDF7A7FF0028DCD1DDE7902C002036
:10D5800014D90700FFF716BE2DE9F84F204C0025EF
:10D590006846D4E903B6FFF74DF88046FFF7B4F9C3
:10D5A0000746A946B8F1000F25D00023009ACC46C3
:10D5B000E06819E007680146974202D9BA1A02608A
:10D5C00014E0C1F800C0D1F80C80D21BC8693B44FC
:10D5D0008A46B8F1000F07D0F71827F07F47C1E956
:10D5E0000178CAF81C500D460028E3D1E0602846B7
:10D5F000FFF7EAF904E02846FFF7E6F900B917B1AA
:10D600005846FEF7A7F984F80490BDE8F88F0000AB
:10D61000382C00200D4B10B5D96831B102680C6868
:10D62000A24204D8A21A0A60C161D86010BD0B469C
:10D6300003E00B46C969121B21B10C689442F8D370
:10D64000A41A0C600260C161D86110BD382C0020A2
:10D650002DE9F0411D4DEC68002C35D01C48002709
:10D6600000682969B846401A20F07F462068B04219
:10D6700015D82246361A0744E469107C68B182F84E
:10D6800010806B6933B1D2E90501984728B1FDF7E5
:10D6900079FB02E0D2E905108847002CE6D16978D1
:10D6A000A878814206D1401CC0B2A870022801D1DE
:10D6B00085F802800548A978183040F82170BDE847
:10D6C000F0411420FCF7E6BFBDE8F081382C0020C3
:10D6D000041501400870000A487002207047087065
:10D6E000020A4A70020C8A70000EC870042070474B
:10D6F00038B515494888A0F57F42FF3A23D04A78CB
:10D70000124C521CD2B24A70237B93420AD3091D99
:10D7100075DF002817D0A169002914D001B0BDE839
:10D720003040084700254D70217C29B13B2176DF30
:10D7300010B1A16901B188476169002903D08DF852
:10D7400000506846884738BD042C00204C3000202B
:10D75000EFF30580C005C00D0ED0103840B2002890
:10D7600003DA00F00F00074900E00749405C400978
:10D77000022803D0062803D00220704700207047FB
:10D780000120704714ED00E000E400E04278837867
:10D79000521CD2B2934200D100220378934201D1AD
:10D7A000002070470A704168407800EB400001EBB0
:10D7B000C00070472DE9FC411646DDE90854CDE96B
:10D7C00000541F468046022200F00CF8002807D1C2
:10D7D000CDE900543B4610223146404600F002F8A5
:10D7E000BDE8FC812DE9FC5F0026DDE90C4B994684
:10D7F00092468E4680462788354630E0D8F80400A9
:10D80000002200EB850069460068019001A865DFF1
:10D81000002830D19DF8000050451FD10EB10021E5
:10D8200000E00221228808441118594522D846B93F
:10D83000521C90B2208009F800E02088401C208013
:10D840000126218801A801EB0902694665DF00284D
:10D8500011D120889DF80010084420806D1CB8F874
:10D860000000A842CADC56B12088C01B401E80B20E
:10D87000FF2802D90C20BDE8FC9F09F80700002012
:10D88000F9E7000010B5074C48DF08B1FDF77AFA58
:10D89000FDF708FB2078022803D0032801D00428D4
:10D8A000F2D110BD582C002001000007020000003A
:10D8B0000000000000000000000000002C300020EC
:10D8C00023D1BCEA5F782315DEEF121200000000BE
:10D8D00095D00700000000000000000002000000DA
:10D8E0000000000000000000000000000000000038
:10D8F000843100200400000000000000000000004F
:10D900000000000000000000B5D00700000000008B
:10D910000000000003000000000000000000000004
:10D9200005000000000000000000000000000000F2
:10D930000000000054D90700002C0020CC0000009B
:10D9400074A9070020DA0700CC2C00204C27000027
:10D9500084A907000090D003000000000000000030
:10D9600000000000000000000000000000000000B7
:10D9700000000000000000000000000000000000A7
:10D980000000000000000000000000000000000097
:10D990000000000000000000000000000000000087
:10D9A0000000000000000000000000000000000077
:10D9B0000000000000000000000000000000000067
:10D9C0000000000000000000000000000000000057
:10D9D0000000000000000000000000000000000047
:10D9E00000000000000000000000FFFF0000000039
:10D9F00032000000000000000000000000000000F5
:10DA00000000000000000000000000000000000016
:10DA10000000000000000000000000000000000006
:020000040007F3
:10F0000001000000000000000000000000000000FF
:10F0100000000000000000000000000000000000F0
:10F0200000000000000000000000000000000000E0
:10F0300000000000000000000000000000000000D0
:10F0400000000000000000000000000000000000C0
:020000041000EA
:0410140000A0070031
:020000041000EA
:0410180000E00700ED
:040000050007A4014B
:00000001FF
