:020000040001F9
:10C00000E08500207DC5010085C5010087C50100D0
:10C0100089C501008BC501008DC50100000000002D
:10C020000000000000000000000000008FC50100BB
:10C0300091C501000000000093C5010095C50100F5
:10C0400097C5010097C5010071EF010097C5010078
:10C0500097C5010097C5010009CE0100D1EB010091
:10C0600021EF010035EF010049EF010099EB0100DC
:10C0700097C5010097C5010097C5010097C501004C
:10C0800097C50100A9EB010097C5010097C5010004
:10C0900091EC010097C5010095EC010097C50100E6
:10C0A00097C5010097C501005DEF010097C501002C
:10C0B00097C5010097C501000000000000000000C6
:10C0C00097C5010097C5010097C5010097C50100FC
:10C0D000C1EB010097C5010097C5010000000000F9
:10C0E0000000000000000000000000000000000050
:10C0F0000000000000000000000000000000000040
:10C10000000000000000000000000000000000002F
:10C11000000000000000000000000000000000001F
:10C40000DFF80CD000F0C0FC00480047294A0200C9
:10C41000E0850020401E00BF00BF00BF00BF00BF7E
:10C4200000BF00BF00BF00BF00BF00BF00BF00BF14
:10C4300000BF00BF00BF00BF00BF00BF00BF00BF04
:10C4400000BF00BF00BF00BF00BF00BF00BF00BFF4
:10C4500000BF00BF00BF00BF00BF00BF00BF00BFE4
:10C4600000BF00BF00BF00BF00BF00BF00BF00BFD4
:10C4700000BF00BF00BF00BF00BF00BF00BF00BFC4
:10C4800000BF00BF00BFC5D170470000401E00BF05
:10C4900000BF00BF00BF00BF00BF00BF00BF00BFA4
:10C4A00000BF00BF00BF00BF00BF00BF00BF00BF94
:10C4B00000BF00BF00BF00BF00BF00BF00BF00BF84
:10C4C00000BF00BF00BF00BF00BF00BF00BF00BF74
:10C4D00000BF00BF00BF00BF00BF00BF00BF00BF64
:10C4E00000BF00BF00BF00BF00BF00BF00BF00BF54
:10C4F00000BF00BF00BF00BF00BF00BF00BFC5D16D
:10C5000070470000401E00BF00BF00BF00BF00BF5B
:10C5100000BF00BF00BF00BF00BF00BF00BF00BF23
:10C5200000BF00BF00BF00BF00BF00BF00BF00BF13
:10C5300000BF00BF00BF00BF00BF00BF00BF00BF03
:10C5400000BF00BF00BF00BF00BF00BF00BF00BFF3
:10C5500000BF00BF00BF00BF00BF00BF00BF00BFE3
:10C5600000BF00BF00BF00BF00BF00BF00BF00BFD3
:10C5700000BF00BF00BFC5D170470000064880471C
:10C5800006480047FEE7FEE7FEE7FEE7FEE7FEE7B8
:10C59000FEE7FEE7FEE7FEE7B9EC010001C401009B
:10C5A00040EA01039B0703D009E008C9121F08C035
:10C5B000042AFAD203E011F8013B00F8013B521EB5
:10C5C000F9D27047D2B201E000F8012B491EFBD22C
:10C5D00070470022F6E710B513460A46044619468E
:10C5E000FFF7F0FF204610BD30B505462A460B4642
:10C5F00012F8010B13F8014B08B1A042F8D01CB19E
:10C60000002802D06D1CF1E7284630BD421C10F80E
:10C61000011B0029FBD1801A70472DE9FE4F80468F
:10C6200081EA0300C00F0C46009021F0004123F086
:10C630000045B8EB0200A94105D24046214690468C
:10C640001C460B46024623F00040104304D14046EE
:10C65000214603B0BDE8F08F270DC7F30A00C3F3EE
:10C660000A510290401A0190402866DAC3F3130081
:10C6700040F4801B0098924620B10023D2EB030ABD
:10C6800063EB0B0B01985946C0F14002504600F095
:10C690004CFA06460D4650465946019A00F064FA97
:10C6A00010EB08006141002487EA115284EAE77325
:10C6B0001A433BD0009A3AB3019A012A4FEA075233
:10C6C00010DC001B61EB02014FF0004202EA07524E
:10C6D000CDE90042001C41F5801132462B4600F0A6
:10C6E00098FAB6E7001B61EB0201001C41F58013CC
:10C6F00000185B412018A2F5001747EB030140EA40
:10C70000D570B6196D4111E06D084FEA360645EA5D
:10C71000C0754FEA0752001B61EB0201001C41F596
:10C72000801149084FEA30000019514132462B462A
:10C7300003B0BDE8F04F00F05FBA0098012240005E
:10C740000023D0EB020263EBE073009821464FEA2E
:10C75000E074B8EB000061EB0401E9E783F000430B
:10C760005BE781F0004158E72DE9FE4F81EA0304C1
:10C7700004F0004421F0004100944FF0000B23F03E
:10C78000004350EA010402D052EA030404D100201D
:10C79000014603B0BDE8F08FC3F30A54C1F30A5554
:10C7A0002C44A4F2F3340194A0FB0254C1F313010E
:10C7B00041F48011C3F3130343F4801301FB0244DB
:10C7C00000FB034E840A970A44EA815447EA8357E0
:10C7D000A4FB076802958D0A05FB07854FEA932C99
:10C7E00004FB0C542705029D4FEA065847EA16370A
:10C7F000B5EB08056EEB070C870E920E47EA811722
:10C8000042EA8312A7FB0201B6EB0B0164EB0004C2
:10C810002B0D43EA0C335E1844EB1C50DA465146AC
:10C82000E7FB0201C5F313044FEA0B3343EA145349
:10C830004FEA0432019C43EA0603A4F10C0402947B
:10C84000009CCDE900B400F0E4F9A2E72DE9F04D39
:10C8500081EA030404F0004B21F0004514464FF038
:10C86000000A23F0004150EA050220D054EA0102F8
:10C870001DD0C5F30A570246C5F31303C1F31300D5
:10C88000C1F30A5640F4801543F48013A7EB060861
:10C89000101BD64608F2FD3873EB050002D308F1F1
:10C8A000010801E092185B41B8F1000F03DA0020A3
:10C8B0000146BDE8F08D00204FF480110646844605
:10C8C0000EE0171B73EB050705D3121B63EB050383
:10C8D00006434CEA010C49084FEA300092185B41CC
:10C8E00050EA0107EDD152EA030012D082EA0400B7
:10C8F00083EA0501084303D100224FF0004308E01A
:10C90000101BAB4102D20122002302E06FF00102B2
:10C9100053101AEB06004CEB085110EB0A0041EBE8
:10C920000B01BDE8F04D00F067B90EB5C10F80EA0C
:10C93000E0700844CA07002140F233438DE80E003E
:10C940000A460B4600F065F903B000BD0EB540F293
:10C95000334102910021CDE900110A460B4600F057
:10C9600058F903B000BD0EB540F2334202920022E6
:10C97000CDE90022134600F04CF903B000BD70B5BC
:10C98000C1F30A5201F000450024C1F3130140F243
:10C99000FF3341F480119A4201DA002070BD40F269
:10C9A00033439A42A2F2334203DC524200F0CCF805
:10C9B00000E090402C43F1D0404270BDC1F30A52D8
:10C9C00010B5C1F3130140F2FF3341F480119A42D4
:10C9D00001DA002010BD40F233439A42A2F2334202
:10C9E00003DC524200F0B0F810BD904010BD00F0E2
:10C9F000004230F000400AD0C10D01F56071C0F373
:10CA0000160042EA0151C208400711437047002056
:10CA10000146704730B5002904DB4FF00044404226
:10CA200064EB0101002B04DB4FF00044524264EB45
:10CA300003038B4208BF824230BD000030B500299D
:10CA400004DB4FF00044404264EB0101002B04DBA7
:10CA50004FF00044524264EB0303994208BF9042F6
:10CA600030BD000001F0004330B421F0004150EA35
:10CA7000010206D00A0DA2F56072C1F31301002A6B
:10CA800002DC30BC00207047440F44EAC104C100FE
:10CA9000E01830BC00EBC25000F078B830B50B465F
:10CAA000014600202022012409E021FA02F59D42DE
:10CAB00005D303FA02F5491B04FA02F52844151EB2
:10CAC000A2F10102F1DC30BD2DE9F05F0546002046
:10CAD00092469B4688460646814640241BE02846EF
:10CAE00041464746224600F02FF853465A46C01AA0
:10CAF000914110D311461846224600F016F82D1A1F
:10CB000067EB01084F4622460120002100F00DF896
:10CB100017EB00094E41201EA4F10104DFDC48465A
:10CB200031462A464346BDE8F09F202A04DB203ADE
:10CB300000FA02F1002070479140C2F1200320FA70
:10CB400003F3194390407047202A04DB203A21FA6E
:10CB500002F00021704721FA02F3D040C2F1200216
:10CB60009140084319467047202A06DBCB17203A2C
:10CB700041FA02F043EAE07306E041FA02F3D040E2
:10CB8000C2F1200291400843194670470029A8BF0E
:10CB90007047401C490008BF20F00100704710B4E6
:10CBA000B0FA80FC00FA0CF050EA010404BF10BC9B
:10CBB000704749B1CCF1200421FA04F411FA0CF1C8
:10CBC00018BF012121430843A3EB0C01CB1D010633
:10CBD000000A002BBEBF002010BC704700EBC35002
:10CBE00010440029A4BF10BC7047401C490008BF76
:10CBF00020F0010010BC704710B5002B08DA401C73
:10CC000041F1000192185B411A4301D120F001006B
:10CC100010BD2DE9F04D92469B4611B1B1FA81F25B
:10CC200002E0B0FA80F220329046FFF77EFF044621
:10CC30000F4640EA0A0041EA0B0153465A460843B0
:10CC400003D120463946BDE8F08D114653EA010074
:10CC500015D0C8F140025046FFF776FF05460E4654
:10CC6000504659464246FFF760FF084301D0012075
:10CC700000E00020054346EAE0762C4337430A985B
:10CC80004FEA4453A0EB08004FEAD4240A304FF097
:10CC9000000244EA47544FEAD72502D50020014656
:10CCA000D1E7010510196941DDE90845001969411D
:10CCB000BDE8F04DA0E72DE9F04D00231A461B1A00
:10CCC0008A4103DB00200146BDE8F08DC1F30A5222
:10CCD000C1F3130141F480154FF0000BD10702D1CD
:10CCE00000186D41521E0027044640F2FF113846DD
:10CCF00001EB620A3E468046024600204FF4801156
:10CD0000FFF722FFC2197141BB1846EB0100B4EBDB
:10CD1000030C75EB000C04D3E41A65EB0005174611
:10CD20000E46241908F101006D4180463428E3DDE8
:10CD3000F91946EB0600091BA84103D24FF0FF3258
:10CD4000134601E0002213461BEB070046EB0A5195
:10CD5000BDE8F04DFFF750BFC1F30A52C1F3130114
:10CD600040F2FF3341F480119A4202DA002001467A
:10CD7000704740F233439A42A2F2334202DC5242FD
:10CD8000FFF7E2BEFFF7D1BE064C074D06E0E068B4
:10CD900040F0010394E8070098471034AC42F6D302
:10CDA000FFF732FBAC980200CC98020070B501EBA3
:10CDB000020410F8015B15F0070301D110F8013BE4
:10CDC0002A1106D110F8012B03E010F8016B01F8CD
:10CDD000016B5B1EF9D12B0705D40023521E0FD423
:10CDE00001F8013BFAE710F8013B02F10202A1EB66
:10CDF000030303E013F8015B01F8015B521EF9D550
:10CE0000A142D6D3002070BD2DE9FC5F0025DFF8DC
:10CE10003091A8464FF4807601242F46304609F021
:10CE20001DF838B1D9F80403204203D0304609F088
:10CE30000BF82543361D64007F1CB6B2082FEDD3D6
:10CE40004FF4BE74204609F009F838B1204608F0C6
:10CE5000FBFF3C4845F00045D0F800803A4E15F005
:10CE6000FF0F13D0012700242F420BD0374800EBCF
:10CE7000840108680968C0F3042056F82420C1F32F
:10CE8000014190477F00641C082CEDD3002D54DA3B
:10CE90004FF0000A4FF0FF3900273D46701910F897
:10CEA000501F90F9000021F0C004401C37D0012031
:10CEB00000FA04FB1BEA090F31D0880900902046D4
:10CEC00006F066FA56F82000019020B10099584605
:10CED000032904D005E00098032820D158464AEAE7
:10CEE000000A1B4951F824101BEA080FC1F3014145
:10CEF00002D0022902D012E0032910D100980328A1
:10CF000007D1022917D00221204608F07FFF7F1C9D
:10CF1000FFB2019818B1DDE90012204690476D1C60
:10CF2000042DBBD3002F08D006480068404504D02C
:10CF30008046D146B0E70321E6E7BDE8FC9F00004C
:10CF400000600040100500501443002010650040B0
:10CF5000000700502DE9F05F2DED100B2DED108B2B
:10CF6000B6B060A8B0EE45DAF0EE65DAB0EE479AFA
:10CF7000F0EE679AB0EE46AAF0EE66AAB0EE44EA8A
:10CF800090EC04BBF0EE64EAB0EE43FAF0EE63FA24
:10CF900053EC1D2B51EC1D0BFFF7E6FB41EC110B85
:10CFA00053EC1E2B8DED081B51EC1E0BFFF7DCFB29
:10CFB00041EC180B53EC1F2B51EC1F0BFFF7D4FB6C
:10CFC00053EC182BFFF729FB9DED081B53EC112B9D
:10CFD000FFF723FB41EC100B02F024FC53EC102B69
:10CFE0009FEDFE0B51EC100BFFF730FC41EC180BE2
:10CFF0009FEDFC0B53EC102BFFF70CFD7ED053EC98
:10D00000182B51EC1F0BFFF7AFFB41EC100B53EC4F
:10D01000182B8DED4C0B51EC1E0BFFF7A5FB41ECD3
:10D02000100B53EC182B8DED4E0B51EC1D0BFFF735
:10D030009BFB41EC100B53EC1B2B8DED500B51EC7B
:10D040001B0BFFF791FB41EC1D0B53EC192B51EC23
:10D05000190BFFF789FB41EC180B53EC1A2B51EC21
:10D060001A0BFFF781FB53EC182BFFF7D6FA53ECA2
:10D070001D2BFFF7D2FA41EC100B02F0D3FB53EC5F
:10D08000102B9FEDD60B51EC100BFFF7DFFB41ECA3
:10D09000180B9FEDD40B53EC102BFFF7BBFCADD05E
:10D0A00053EC182B51EC1A0BFFF75EFB41EC1D0BF8
:10D0B00053EC182B51EC190BFFF756FB41EC1F0BEF
:10D0C00053EC182B51EC1B0BFFF74EFBC74C41ECFC
:10D0D0001E0B94ED0E0B94ED12BB8DED200B53EC5B
:10D0E0001B2B51EC100BFFF73FFB0A91169094EDB0
:10D0F000149B41EC1A0B53EC192B00E0FEE394ED6A
:10D10000108B51EC180BFFF72FFB119153EC1A2BDE
:10D110001B90FFF782FA41EC110B8DED081B9FED80
:10D12000B4AB51EC1E0B53EC1A2BFFF71DFB149103
:10D130000D909DED081B53EC112BFFF715FB41ECF7
:10D14000100B53EC192B8DED220B9DED200B51ECA8
:10D15000100BFFF709FB41EC110B0B9183468DED92
:10D16000121B53EC1B2B51EC180BFFF7FDFA099126
:10D170009DED121B824653EC112BFFF7EFFA41ECA9
:10D18000110B53EC1A2B8DED121B51EC1F0BFFF7FB
:10D19000EBFA18919DED121B814653EC112BFFF712
:10D1A000E3FA41EC100B53EC192B8DED280B51ECED
:10D1B000190BFFF7D9FA41EC110B069104468DEDDE
:10D1C000121B53EC1B2B51EC1B0BFFF7CDFA8046C7
:10D1D0009FED891B199153EC112BFFF7C2FA9DEDBE
:10D1E000121B53EC112BFFF7B9FA41EC110B53EC66
:10D1F0001A2B8DED2A1B51EC1D0BFFF7B5FA0C9184
:10D200009DED2A1B074653EC112BFFF7ADFA9DED60
:10D21000280B53EC102BFFF700FA9DED220B53EC7B
:10D22000102BFFF7FAF99DED200B41EC1A0B53EC94
:10D23000182B51EC100BFFF797FA41EC100B1091E3
:10D2400006468DED200B53EC192B51EC1B0BFFF711
:10D250008BFA08919DED200B054653EC102BFFF740
:10D260007DFA41EC110B149953EC112B0D98FFF73B
:10D270007BFA41EC1B0B069953EC182B41EC194B34
:10D2800051EC180BFFF770FA04469FED5B1B0691FB
:10D2900053EC112BFFF765FA53EC192BFFF75EFAED
:10D2A00041EC110B189953EC112B41EC109B51ECF4
:10D2B000100BFFF759FA41EC180B0B9941EC10BB1E
:10D2C000099953EC102B41EC11AB51EC110BFFF70A
:10D2D000A4F941EC100B0C9953EC102B41EC117B91
:10D2E00051EC110BFFF740FA53EC182BFFF795F9AF
:10D2F00053EC1B2BFFF791F941EC190B19999FED9A
:10D300003E1B41EC188B069953EC112B41EC104B52
:10D3100051EC100BFFF725FA53EC182BFFF71EFA10
:10D3200041EC100B149953EC102B0D98FFF71CFADD
:10D3300041EC1B0B109941EC116B089953EC112B2C
:10D3400041EC105B51EC100BFFF767F941EC110B4E
:10D35000189953EC112B41EC109B51EC100BFFF77B
:10D3600003FA41EC180B0A99169841EC100B11992D
:10D3700053EC102B1B98FFF7F1F941EC110B0C99B2
:10D3800053EC112B41EC107B51EC100BFFF7ECF937
:10D3900053EC182BFFF741F953EC1B2BFFF73DF92A
:10D3A00041EC180B53EC192B51EC190BFFF7DCF97E
:10D3B00041EC190B53EC1A2B51EC1A0BFFF7D4F973
:10D3C00053EC192BFFF729F941EC100B02F02AFA64
:10D3D0008DED2E0B8DED2C8B044C11E00000000028
:10D3E0000000F03F000000000000000000220020CC
:10D3F0000000000000000040000000000000E03FCE
:10D4000094ED0EBB94ED129B8DED0EBB53EC192BDE
:10D4100051EC1B0BFFF7A8F941EC110B1E918DEDA0
:10D42000141B94ED148B94ED10AB834653EC182B26
:10D4300051EC1A0BFFF798F91B919DED141B8246D6
:10D4400053EC112BFFF78AF91FED171B53EC112B2F
:10D45000FFF78AF941EC100B53EC182B8DED2A0BDA
:10D4600051EC190BFFF780F941EC110B1D9181462E
:10D470008DED181B53EC1A2B51EC1B0BFFF774F9B5
:10D4800021919DED181B804653EC112BFFF7C5F839
:10D490001FED291B53EC112BFFF766F941EC100B24
:10D4A00053EC182B8DED280B51EC180BFFF75CF9A2
:10D4B00041EC110B089104468DED341B53EC192BF4
:10D4C00051EC190BFFF750F941EC110B199107467C
:10D4D0008DED301B53EC1A2B51EC1A0BFFF744F96E
:10D4E00041EC110B209106468DED321B53EC1B2BAA
:10D4F00051EC1B0BFFF738F99DED321B53EC112B50
:10D50000FFF72CF99DED301B53EC112BFFF726F99B
:10D510009DED341B53EC112BFFF77FF841EC100B02
:10D520008DED260B1E9941EC10BB1B9953EC102B73
:10D5300041EC11AB51EC110BFFF710F941EC110B61
:10D540008DED301B1FED560B53EC102B9DED2C0B6E
:10D5500051EC100BFFF708F914919DED301B0546B7
:10D5600053EC112BFFF700F941EC110B8DED2C1B47
:10D57000089941EC114B8DED301B199941EC107B52
:10D580001FED631B51EC100B53EC112BFFF7E9F867
:10D590009DED301B53EC112BFFF7E0F841EC110B24
:10D5A0008DED301B1FED6E0B53EC102B9DED2E0BF4
:10D5B00051EC100BFFF7D8F808919DED301B044695
:10D5C00053EC112BFFF7D0F89DED2C1B53EC112BD6
:10D5D000FFF723F841EC100B8DED2C0B1D9941EC5E
:10D5E000119B219953EC112B41EC108B51EC100B3A
:10D5F000FFF713F841EC110B149953EC112B41EC8C
:10D60000105B51EC100BFFF7AFF841EC100B53EC33
:10D61000182B8DED2E0B51EC1B0BFFF7A5F841ECF1
:10D620001B0B53EC192B51EC1A0BFFF79DF853EC25
:10D630001B2BFFF793F841EC110B089953EC112BBE
:10D6400041EC104B51EC100BFFF78EF89DED2E0BBB
:10D6500053EC102BFEF7E1FF41EC100B8DED060BA8
:10D66000199941EC1B7B209941EC106B1FED9E1B1F
:10D6700051EC100B53EC112BFFF773F853EC1B2BF1
:10D68000FFF76CF841EC110B149953EC112B41ECA2
:10D69000105B51EC100BFFF767F841EC1B0B1B996B
:10D6A00041EC11AB1E9953EC112B41EC10BB51EC2A
:10D6B000100BFEF7B2FF41EC110B089953EC112B44
:10D6C00041EC104B51EC100BFFF74EF853EC1B2BB9
:10D6D000FEF7A3FF9DED060B41EC1B0B53EC102B4B
:10D6E00051EC1E0BFFF740F841EC110B53EC1B2BD8
:10D6F0008DED101B51EC1F0BFFF736F89DED101B45
:10D7000053EC112BFFF72AF841EC110B8DED101B98
:10D710009DED280B53EC102B9DED500B51EC100B95
:10D72000FFF722F841EC110B8DED141B9DED260B3C
:10D7300053EC102B9DED4E0B51EC100BFFF714F832
:10D740009DED141B53EC112BFFF708F89DED101BFA
:10D7500053EC112BFEF761FF41EC100B53EC1B2B2C
:10D760008DED0C0B51EC1D0BFEF7FEFF9DED2C0B10
:10D7700041EC1B0B53EC102B51EC1E0BFEF7F4FF8E
:10D7800053EC1B2BFEF7EAFF9DED260B41EC1E0B25
:10D7900053EC102B9DED4C0B51EC100BFEF7E4FFFE
:10D7A0009DED2A0B41EC1B0B53EC102B9DED500B08
:10D7B00051EC100BFEF7D8FF53EC1B2BFEF7CEFFFE
:10D7C00053EC1E2BFEF729FF9DED2C0B41EC1E0B9D
:10D7D00053EC102B51EC1F0BFEF7C6FF9DED060B13
:10D7E00041EC1B0B53EC102B51EC1D0BFEF7BCFF57
:10D7F00053EC1B2BFEF7B2FF9DED2A0B41EC1D0BEA
:10D8000053EC102B9DED4E0B51EC100BFEF7ACFFC3
:10D810009DED280B41EC1B0B53EC102B9DED4C0B9D
:10D8200051EC100BFEF7A0FF53EC1B2BFEF796FFFD
:10D8300053EC1D2BFEF7F1FE41EC1D0B9FEDFEFBA3
:10D840009DED0C0B53EC1F2B51EC100BFEF78CFFD6
:10D85000FB4C94ED161B53EC112BFEF7DEFE41EC56
:10D860001B0B53EC1F2B84ED16BB51EC1E0BFEF76C
:10D870007BFF94ED181B53EC112BFEF7CEFE41EC11
:10D88000100B53EC1F2B84ED180B8DED100B51EC8E
:10D890001D0BFEF769FF94ED1A1B53EC112BFEF7DD
:10D8A000BCFE41EC100B84ED1A0B8DED160B9FEDB9
:10D8B000E5FB9DED0C0B53EC1F2B51EC100BFEF711
:10D8C00053FF9DED461B53EC112BFEF7A6FE53ECC8
:10D8D0001B2BFEF7A2FE41EC1B0B53EC1F2B51EC54
:10D8E0001E0BFEF741FF9DED481B53EC112BFEF77D
:10D8F00094FE9DED100B53EC102B00E091E1FEF730
:10D900008CFE41EC1E0B53EC1F2B51EC1D0BFEF754
:10D910002BFF9DED4A1B53EC112BFEF77EFE9DED78
:10D92000160B53EC102BFEF778FE41EC1F0B51EC5D
:10D93000180B53EC1F2BFEF717FF41EC110B53ECA8
:10D940001E2B8DED081B51EC190BFEF70DFF41EC62
:10D950001D0B51EC1A0B81F0004153EC1B2BFEF711
:10D9600003FF53EC1D2BFEF7F9FE9DED081B53EC56
:10D97000112BFEF7F3FE53EC1C2BFEF7F5FE9DED8D
:10D980000E1B53EC112BFEF748FE41EC1D0B53EC24
:10D990001E2B84ED0EDB51EC180BFEF7E5FE41EC7F
:10D9A000110B53EC1F2B8DED0C1B51EC190BFEF7DB
:10D9B000DBFE41EC110B53EC1D2B8DED081B51ECE4
:10D9C0001B0BFEF7D1FE9DED081B53EC112BFEF750
:10D9D00024FE9DED0C1B53EC112BFEF7BFFE53EC08
:10D9E0001C2BFEF7C1FE53EC1A2BFEF716FE41EC82
:10D9F0001A0B53EC182B84ED10AB51EC1B0BFEF7FC
:10DA0000B3FE41EC110B53EC1F2B8DED0E1B51ECB3
:10DA10001A0BFEF7A9FE41EC110B53EC1E2B8DEDFA
:10DA20000C1B51EC1D0BFEF79FFE9DED0C1B53ECE8
:10DA3000112BFEF793FE9DED0E1B53EC112BFEF701
:10DA4000ECFD53EC1C2BFEF78FFE53EC192BFEF76D
:10DA5000E4FD41EC190B51EC1B0B84ED129B53ECD4
:10DA6000192BFEF781FE41EC1B0B53EC1E2B51ECE6
:10DA70001A0BFEF779FE41EC1E0B53EC1F2B51ECF9
:10DA80001D0BFEF771FE53EC1E2BFEF7C6FD53EC8B
:10DA90001B2BFEF763FE53EC1C2BFEF765FE53ECCD
:10DAA000182BFEF7BAFD41EC100B84ED140B53EC70
:10DAB000102BFEF759FE41EC180B53EC192B51ECCF
:10DAC000190BFEF751FE41EC190B53EC1A2B51ECDC
:10DAD0001A0BFEF749FE41EC1A0B53EC1D2B51ECCF
:10DAE0001D0BFEF741FE53EC1A2BFEF796FD53EC8F
:10DAF000192BFEF792FD53EC182BFEF78EFD41EC2F
:10DB0000100B01F08FFE53EC102B9FED509B51EC4E
:10DB1000190BFEF79BFE41EC180B9FED4E0B53ECDF
:10DB2000102BFEF777FF7CD094ED0E0B53EC182BE7
:10DB300051EC100BFEF718FE41EC1D0B53EC182BAB
:10DB400084ED0EDB94ED100B51EC100BFEF70CFE88
:10DB500041EC1A0B53EC182B84ED10AB94ED120B27
:10DB600051EC100BFEF700FE41EC1C0B53EC182B94
:10DB700084ED12CB94ED140B51EC100BFEF7F4FD79
:10DB800041EC1B0B9FED358B84ED14BB53EC182B34
:10DB900051EC1D0BFEF7E8FD53EC1C2BFEF7E4FDEA
:10DBA0009FED30CB41EC1D0B53EC1C2B51EC1A0BB1
:10DBB000FEF7DAFD53EC1B2BFEF7D6FD53EC1D2BC5
:10DBC000FEF72BFD41EC100B01F006FA9FED27BB91
:10DBD00051EC100B53EC1B2BFEF7C6FD41EC100B68
:10DBE00053EC182B84ED080B94ED12AB51EC1A0B8F
:10DBF000FEF7BAFD0E4646EC100B054653EC1A2B09
:10DC000051EC100BFEF7B0FD94ED10AB41EC1D0B89
:10DC100053EC1C2B51EC1A0BFEF7A6FD53EC1A2B00
:10DC200000E0C8E0FEF7A0FD53EC1D2BFEF796FDCB
:10DC300053EC192B1EE000007B14AE47E17A743FD1
:10DC4000002200200000000000001440000000003E
:10DC50000000F03F00000000000000000000000095
:10DC60000000004000000000000000C00000006054
:10DC700066A64C40FEF7D1FC94ED0E0B41EC190B5F
:10DC800053EC182B51EC100BFEF76EFD53EC1A2BD6
:10DC9000FEF76AFD46EC105B94ED141B41EC1A0B89
:10DCA00053EC112B51EC100BFEF75EFD53EC1A2BCD
:10DCB000FEF7B3FC41EC100BB0EE491AF0EE691A16
:10DCC00001F0B6FC53EC1B2B51EC100BFEF74CFD96
:10DCD00041EC100B84ED060B94ED14CB53EC1C2B94
:10DCE00051EC1C0BFEF740FD94ED12BB41EC1F0BF9
:10DCF00053EC1B2B51EC1B0BFEF736FD94ED10ABD8
:10DD000041EC1E0B53EC1A2B51EC1A0BFEF72CFDB9
:10DD100094ED0E9B41EC1D0B53EC192B51EC190BA0
:10DD2000FEF722FD53EC1D2BFEF777FC53EC1E2B68
:10DD3000FEF714FD53EC1F2BFEF710FD41EC1D0BFD
:10DD400053EC1C2B51EC190BFEF70EFD41EC190B9B
:10DD500053EC1B2B51EC1A0BFEF706FD53EC192B61
:10DD6000FEF75BFC53EC182BFEF7FEFC41EC100BAE
:10DD7000B0EE4D1AF0EE6D1A01F05AFC9FED111B3A
:10DD800051EC100B53EC112BFEF7EEFC41EC100B99
:10DD9000A4F1800084ED0A0B94ED061B03228DEDA7
:10DDA000001B94ED081B69468DED021B8DED040BE5
:10DDB000C06A02F0D3FE36B0BDEC108B10B0BDE8E7
:10DDC000F09F00006666666666A64C4070B55422F9
:10DDD000234924A001F0D6F82849042008602749E7
:10DDE000103908600AF08AFD07226821D02007F068
:10DDF000BBFA044603465F22194921A001F0C2F88C
:10DE000000221921D02007F0AFFA02221A21D020D7
:10DE100007F0AAFA03226B21D02007F0A5FA1822F6
:10DE20001B21D02007F0A0FA00221C21D02007F0EF
:10DE30009BFA00226A21D02007F096FA002007F012
:10DE40009FFA07F041FB00EA04052B466F220449C4
:10DE500015A001F097F800F0DDFA284070BD000031
:10DE6000449602002573206C696E655B25645D2015
:10DE700073746172742E2E2E0D0A00001805005066
:10DE80002573206C696E655B25645D207472616E1C
:10DE9000736665725F7375636365656465645B254E
:10DEA000645D0D0A000000002573206C696E655BDF
:10DEB00025645D20207472616E736665725F737590
:10DEC000636365656465645B25645D0D0A0000003D
:10DED00010B58CB0002430216846FEF77AFB11A003
:10DEE00001F050F8684609F02BFD154A9FED121B12
:10DEF0009FED142B9FED150B164902F1180000BF82
:10DF000002EBC40383ED001B00EBC40383ED002B85
:10DF100001EBC403641C83ED000B032CF0DB0CB09D
:10DF200010BD00006D61672063616C6920636C65E2
:10DF300061720D0A0000000000000000E0FFEFC069
:10DF40006023002000000000E0FFEF400000000020
:10DF5000000000000845002000B597B030210AA855
:10DF6000FEF737FB0AA808F033FF1D4901F118023C
:10DF700010B192ED040B17E09DED0A0B81ED000B43
:10DF80009DED0C0B82ED000B9DED0E0B81ED020B58
:10DF90009DED100B82ED020B9DED120B81ED040B3C
:10DFA0009DED140B82ED040B8DED080B91ED040B30
:10DFB0000CA08DED060B92ED020B8DED040B91ED97
:10DFC000020B8DED020B92ED000B8DED000B91ED30
:10DFD000000B53EC102B00F0D5FF17B000BD000074
:10DFE0006023002072656164206D61672063616C4D
:10DFF000693A2025662C2025662C2025662C2025B4
:10E00000662C2025662C2025660D0A0030B51E4C96
:10E0100097B0A4F1180594ED042B95ED004B94ED09
:10E02000005B94ED021B95ED023B95ED040B8DED2D
:10E03000082B8DED060B8DED041B8DED023B8DED58
:10E04000005B53EC142B11A000F09CFF95ED000B2E
:10E050000AA88DED0A0B94ED000B8DED0C0B95EDE0
:10E06000020B8DED0E0B94ED020B8DED100B95ED6B
:10E07000040B8DED120B94ED040B8DED140B09F0D8
:10E080005FFC17B030BD000078230020736574205A
:10E090006D61672063616C693A2025662C202566D6
:10E0A0002C2025662C2025662C2025662C20256614
:10E0B0000D0A00002DE9F14F59A02DED068B8CB013
:10E0C00000F060FFFFF782FE38B1FFF701FFDFF8D5
:10E0D00064916D4609F118068CE057A000F052FFDC
:10E0E0000CB0BDEC068BBDE8F88F00BF58494FF46B
:10E0F000002008602A1DA91C684600F02CFD0024A1
:10E100009FED549BDFF82CB10BF1300B9FED53AB1F
:10E11000DFF850A135F91400FEF707FC53EC192B7A
:10E12000FEF722FB41EC100B0BEBC40090ED001B43
:10E1300051EC100B53EC112BFEF716FBFEF71FFCF6
:10E1400000B225F81400FEF7F0FB09EBC40797EDC9
:10E15000001B53EC112BFEF771FC35F9140006D2AD
:10E16000FEF7E3FB41EC100B87ED000B12E0FEF72E
:10E17000DCFB06EBC40898ED001B53EC112BFEF7FB
:10E1800049FC07D235F91400FEF7CFFB41EC100B28
:10E1900088ED000B06EBC40097ED001B90ED000B23
:10E1A00051EC110B53EC102BFEF737FA53EC1A2BF2
:10E1B000FEF7DAFA41EC180B0AEBC40080ED008B95
:10E1C00035F91400FEF7B1FB53EC182BFEF7C6FA35
:10E1D00041EC100B04A800EBC400641C80ED000BA4
:10E1E000032C97DB04A9129800F08EF8642007F046
:10E1F000E5F948DF0F480838007800287FF476AF4B
:10E200004FF4FA6007F0DAF9BFF34F8F1648016850
:10E21000164A01F4E06111430160BFF34F8FFEE73E
:10E220007374617274206D61672063616C692E2E56
:10E230002E0D0A0060230020696E69742073656EDC
:10E24000736F72206661696C6564210D0A000000BD
:10E2500008050050333333333333C33F000000002D
:10E260000000E03F084500200CED00E00400FA0546
:10E2700010B5FFF7CBFEBDE8104007F011B8000065
:10E280002DE9F0411E4FDFF87C8006462DED028B14
:10E2900000249FED198B00BF06EBC40553EC182B2F
:10E2A00095ED000B51EC100BFEF75EFA41EC100BF4
:10E2B00007EBC40090ED001B51EC100B53EC112B3D
:10E2C000FEF752FA41EC110B08EBC40085ED001B80
:10E2D00090ED000B51EC110B53EC102BFEF73EFAB6
:10E2E00041EC100B641C85ED000B032CD4DBBDEC62
:10E2F000028BBDE8F0810000333333333333C33F47
:10E30000902300200845002070B591ED000B0C46CD
:10E31000064686B051EC100BFEF731FB8DF800007D
:10E3200094ED000B51EC100BFEF729FB000A8DF861
:10E33000010094ED020B51EC100BFEF720FB8DF861
:10E34000020094ED020B51EC100BFEF718FB000AD3
:10E350008DF8030094ED040B51EC100BFEF70FFB4E
:10E360008DF8040094ED040B51EC100BFEF707FB45
:10E37000274C000A8DF8050094ED000B51EC100BB2
:10E38000FEF7FDFA8DF80600000A04F118058DF875
:10E39000070095ED000B51EC100BFEF7F0FA8DF82D
:10E3A0000800000A8DF8090094ED020B51EC100BE7
:10E3B000FEF7E5FA8DF80A00000A8DF80B0095EDDE
:10E3C000020B51EC100BFEF7DAFA8DF80C00000A84
:10E3D0008DF80D0094ED040B51EC100BFEF7CFFA05
:10E3E0008DF80E00000A8DF80F0095ED040B51EC2E
:10E3F000100BFEF7C4FA8DF81000000A8DF811001A
:10E4000012226946304603F093F906B070BD000051
:10E41000602300202DE9F0412DED0A8B90B00222FF
:10E420003721D02006F0A0FF0A2007F0C7F801230B
:10E430000FAA0021182006F081FFF94F9DF83C102B
:10E440009FEDF88B9FEDF9ABA7F13006F94D06F182
:10E4500018049FEDF99B482908D0F9A000F092FD1F
:10E46000002010B0BDEC0A8BBDE8F081FDA000F0EB
:10E4700089FD00220A21182006F076FF0A2007F005
:10E480009DF80F220A21182006F06EFF0A2007F0DF
:10E4900095F803230EAA1021182006F04FFF9DF8CF
:10E4A00038008038FEF741FA9FEDF8BB53EC1B2B88
:10E4B000FEF75AF99FEDF7CB53EC1C2BFEF7ADF8A6
:10E4C00041EC100B87ED000B9DF839008038FEF70A
:10E4D0002CFA53EC1B2BFEF747F953EC1C2BFEF7E1
:10E4E0009CF841EC100B87ED020B9DF83A00803848
:10E4F000FEF71BFA53EC1B2BFEF736F953EC1C2BE3
:10E50000FEF78BF841EC100B002287ED040B0A217B
:10E51000182006F029FF0A2007F050F812220A21DD
:10E52000182006F021FF0A2007F048F8FFF714FD35
:10E5300096ED000B01F06CF953EC182B51EC100B1D
:10E54000FEF768FA36D094ED000B01F061F953EC58
:10E550001A2B51EC100BFEF75DFA2BD096ED020B47
:10E5600001F056F953EC182B51EC100BFEF752FA50
:10E5700020D094ED020B01F04BF953EC1A2B51EC27
:10E58000100BFEF747FA15D096ED040B01F040F999
:10E5900053EC182B51EC100BFEF73CFA0AD094ED1B
:10E5A000040B01F035F953EC1A2B51EC100BFEF76C
:10E5B00031FA06D19FEDB90B85ED000B85ED020B0D
:10E5C00033E094ED000B96ED001B53EC102B51EC57
:10E5D000110BFEF722F853EC192BFEF7C5F841ECAE
:10E5E000100B85ED000B94ED021B96ED020B53EC26
:10E5F000112B51EC100BFEF710F853EC192BFEF712
:10E60000B3F841EC100B85ED020B94ED041B96ED75
:10E61000040B53EC112B51EC100BFDF7FEFF53ECE8
:10E62000192BFEF7A1F841EC100B0DF1180885ED40
:10E63000040B00BF08F10402911E06A800F08BFA3B
:10E640009FED988B0028F5D0BDF91800FEF76DF905
:10E6500041EC100B8DED080BBDF91A00FEF765F9C2
:10E6600041EC100B8DED0A0BBDF91C00FEF75DF9B6
:10E6700041EC100B08A88DED0C0BFFF701FE9DED92
:10E680000C0B53EC102B51EC100BFEF76DF89DEDBD
:10E690000A0B41EC1A0B53EC102B51EC100BFEF74C
:10E6A00063F89DED080B41EC1B0B53EC102B51EC68
:10E6B000100BFEF759F853EC1B2BFDF7AEFF53EC94
:10E6C0001A2BFDF7AAFF41EC100B01F0ABF8B0EEEE
:10E6D00040AAF0EE60AA94ED000B96ED001B53ECFF
:10E6E000102B51EC110BFEF739F853EC192BFEF7F8
:10E6F0003BF894ED021B96ED020B41EC1C0B53EC26
:10E70000112B51EC100BFEF729F853EC192BFEF7E7
:10E710002BF894ED041B96ED040B41EC1B0B53EC12
:10E72000112B51EC100BFEF719F853EC192BFEF7D7
:10E730001BF895ED040B41EC190B8DED020B95EDDB
:10E74000020B5AA08DED000B95ED000B53EC102B36
:10E7500000F018FC97ED040B61A08DED020B97ED16
:10E76000020B8DED000B97ED000B53EC102B00F01E
:10E7700009FC8DED049B8DED02BB8DED00CB53ECC0
:10E780001A2B62A000F0FEFB53EC1C2B51EC1A0B71
:10E79000FDF7E4FF41EC100B01F03AF853EC182BB5
:10E7A00051EC100BFEF736F939D253EC1B2B51EC20
:10E7B0001A0BFDF7D3FF41EC100B01F029F853ECD5
:10E7C000182B51EC100BFEF725F928D253EC192B1E
:10E7D00051EC1A0BFDF7C2FF41EC100B01F018F8D9
:10E7E00053EC182B51EC100BFEF714F917D253EC25
:10E7F0001B2B51EC1C0BFDF7B1FF41EC100B01F092
:10E8000007F853EC182B51EC100BFEF703F906D266
:10E8100053EC192B51EC1C0BFDF7A0FF8AE0A7E08D
:10E820009023002000000000E0FFEF400000000007
:10E830000000F04008450020000000000000E03F1C
:10E840007265616420616B3839363320646576699E
:10E850006365206964206661696C2E2E2E20256414
:10E860000D0A00007265616420616B38393633200F
:10E870006465766963652069642073756363657395
:10E88000732E2E2E2025640D0A00000000000000CB
:10E890000000703F000000000000F03F000000009A
:10E8A000000000000000000000005940786D616722
:10E8B0005F6F66667365743D25662C20796D6167B0
:10E8C0005F6F66667365743D25662C207A6D61679F
:10E8D0005F6F66667365743D25660D0A0000000073
:10E8E000786D61675F73656E733D25662C20796D69
:10E8F00061675F73656E733D25662C207A6D616775
:10E900005F73656E733D25660D0A00007265616474
:10E910004176673D25662C20784176673D25662C3B
:10E9200020794176673D25662C207A4176673D2522
:10E93000660D0A0041EC100B00F06AFF53EC182B37
:10E9400051EC100BFEF766F812D253EC192B51EC78
:10E950001B0BFDF703FF41EC100B00F059FF53ECCC
:10E96000182B51EC100BFEF755F801D203A000E074
:10E9700008A000F007FB012073E500006D6167202F
:10E9800063616C692064617461206E6F74206261E0
:10E99000640D0A006D61672063616C6920646174B5
:10E9A00061206E6F7420676F6F640D0A00000000B5
:10E9B00038B5044602236A464121D02006F0BEFC49
:10E9C000BDF8000040BA01B22180080400D52180C2
:10E9D00038BD00002DE9F04700242DED048B0E46D4
:10E9E0008246A046274625469FED188B9FED199B32
:10E9F0001AE000BF0AEBC50953EC182B99ED000B88
:10EA000051EC100BFEF71AF801D201270AE099ED3C
:10EA1000000B53EC192B51EC100BFDF7FBFF02D24E
:10EA20004FF00108641C6D1CB542E3DB18EA070FC8
:10EA30000AD07000032190FBF1F0A04204DA01201B
:10EA4000BDEC048BBDE8F0870020F9E70000000072
:10EA50000040654000000000004065C000F01F025B
:10EA60000121914040094FF0E02202EB8000C0F804
:10EA70008012704700F01F020121914040094FF0C1
:10EA8000E02202EB8000C0F80011704700F01F0286
:10EA90000121914040094FF0E02202EB8000C0F8D4
:10EAA000001270474907090E002803DA00F00F0032
:10EAB000024A00E0024A81547047000014ED00E071
:10EAC00000E400E07CB514460D46064606236A467F
:10EAD0003B21D02006F032FCBDF8000040BA03B262
:10EAE0003380180400D53380BDF8020040BA00B26C
:10EAF0002880010400D52880BDF8040040BA00B287
:10EB00002080010400D520807CBD7CB514460D46D4
:10EB1000064606236A464321D02006F00FFC9DF8E6
:10EB2000000040EA002003B23380180400D533808F
:10EB30009DF8020040EA002000B22880010400D5C0
:10EB400028809DF8040040EA002000B220800104E3
:10EB500000D520807CBD7CB514460D4606460222B9
:10EB60003721D02006F000FC07236A460321182035
:10EB700006F0E4FB18B19DF80600000701D500205F
:10EB80007CBDBDF800003080BDF802002880BDF8D3
:10EB90000400208001207CBD03220021014806F0F2
:10EBA00015BE000000B0004004480021016441642B
:10EBB0008164C1640160416009F0F0BC0011014052
:10EBC00004220121014806F001BE0000004002407D
:10EBD0002DE9FE434FF48276304607F08DF92A4C3A
:10EBE0000025B0B1304607F08FF98DF8005060680D
:10EBF000019026480068ADF80800E068B0B1606098
:10EC0000A08A20810020E56007F084F92168684629
:10EC100088474FF48A76304607F06EF948B130469F
:10EC200007F072F984F82750BDE8FE8384F8275076
:10EC3000ECE74FF000474FF48C794FF0010826695C
:10EC40001EE000BFB6FA86F027FA00F109EB800556
:10EC50008E43284607F050F990B1284607F054F942
:10EC6000A5F58C75C5F3C7008DF8040045F3800049
:10EC7000401C8DF800808DF80500216868468847A3
:10EC8000002EDFD1D0E70000204500203476004080
:10EC900009F020BC074810B5406830B18047002813
:10ECA00007D0BDE8104001F0E9BCBDE8104005F018
:10ECB000D5BB10BDE823002070B58A480023021D93
:10ECC0000178101D0124062907D115782D0704D1DC
:10ECD0000578C5F30315032D02D0062904D00FE0F3
:10ECE000824E814D75670EE015782D0708D10578A5
:10ECF000C5F30315032D06D0042D04D0052D02D035
:10ED0000062907D00EE07A4D2D687A4EC5F34235BC
:10ED1000356002E015782D0704D10578C5F3031599
:10ED2000032D02D0062906D011E0734D2E6826F07F
:10ED300080762E600EE015782D0708D10578C5F392
:10ED40000315032D06D0042D04D0052D02D006296D
:10ED500007D00EE0694D2B606B60664D2D1F2B6058
:10ED600002E015782D0704D10578C5F30315032DAE
:10ED700002D0062905D00CE05E4A032164321160FE
:10ED80000AE015782D0704D10578C5F30315032D86
:10ED900002D006290DD06AE0594A05211160584970
:10EDA00078310C60564908310B603F21121D11600B
:10EDB00002E0117809075AD10078C0F30310052842
:10EDC00055D150480068504908604E48001D006801
:10EDD000091D08604B4808300068091D0860494853
:10EDE0000C300068091D0860464810300068091D95
:10EDF0000860444814300068091D08604148183014
:10EE000000684149203108603E481C300068091DF7
:10EE100008603C4820300068091D086039482430EB
:10EE20000068091D0860374828300068091D08601F
:10EE300034482C300068091D0860324830300068C2
:10EE40003149403108602F4834300068091D08609E
:10EE50002C4838300068091D08602A483C3000689A
:10EE6000091D0860274840300068091D08602248D5
:10EE70007438016841F470010160BFF34F8FBFF334
:10EE80006F8F4FF01021D1F80002002803DBD1F87A
:10EE90000402002821DA1D4A14601D480468002C71
:10EEA000FCD01524C1F800420568002DFCD0C1F843
:10EEB000044201680029FCD0136001680029FCD0DD
:10EEC000BFF34F8F0C48F0380168124A01F4E0613B
:10EED00011430160BFF34F8FFEE710490E480860F1
:10EEE00070BD0000E00F00F00DF0ADBA00C00740AB
:10EEF000440200103C050040FCED00E00C01004025
:10EF0000105600400404001020C5004004E50140F4
:10EF100000E401400400FA050090D00334210020F1
:10EF200004220249024805F0D1BA00004C450020F5
:10EF30000080004004220249024805F0C7BA0000E0
:10EF4000584500200090004004220249024805F084
:10EF5000BDBA00006445002000A00040062202491E
:10EF6000024805F0B3BA00007045002000A001403F
:10EF70000348007F08B109F09FBF09F019BF0000E6
:10EF80006C4300200FB4054B10B503A9044A029846
:10EF900000F0D6FD10BC5DF814FB00003D430200FC
:10EFA000E423002003B401984100009850EAC120F6
:10EFB00018BF04204A0D18BF40F0010040F2FF7254
:10EFC000B2EB515F08BF40F00200012808BF0520E6
:10EFD00002B070470000000070B5C1482DED020B73
:10EFE0002DED0E8B82B0119D25F000449FEDBEBB30
:10EFF0009FEDBFDB844240DBA4F140511098A1F1AA
:10F000007F6108430ED0BC48844202DC27D11098AF
:10F0100028B39DED100B53EC102B51EC100BFDF7AA
:10F02000FCFA27E09DED100B53EC1B2B51EC100B61
:10F03000FDF79AFB9DED100B41EC180B53EC1D2BCB
:10F0400051EC100BFDF790FB53EC182BFDF7E5FA94
:10F0500041EC100B02B0BDEC0E8B02B070BD012074
:10F0600000F0BAFC9FEDA60B53EC102B51EC100BEB
:10F07000FDF7ECFB41EC100BECE7A3489FEDA48BF4
:10F08000844256DA9DED100BB4F1795F0ADA51EC47
:10F09000100BFFF787FF042808BF00F07DFC9DEDF3
:10F0A000100BD7E753EC102B51EC100BFDF75CFB6A
:10F0B00041EC190B98480621B0EE490AF0EE690AB6
:10F0C000784400F0ECFB53EC192B51EC100BFDF7DE
:10F0D0004BFB41EC1A0B9148B0EE490AF0EE690A7D
:10F0E0000421784400F0DBFB53EC192B51EC100B9E
:10F0F000FDF73AFB53EC182BFDF78FFA41EC100BA0
:10F1000051EC1A0B53EC102BFDF7A0FB41EC100B4C
:10F110008DED000B53EC102B9DED100B51EC100BF3
:10F12000FDF722FB9DED101B53EC112BFDF775FA3B
:10F13000A0E79DED100B51EC100B04F095FE53EC85
:10F14000182BFDF70EFB41EC100B8DED000B9FED26
:10F15000740B53EC102B9DED000B51EC100BFDF7D5
:10F1600003FB41EC190B70480621B0EE490AF0EEA2
:10F17000690A784400F093FB53EC192B51EC100B07
:10F18000FDF7F2FA41EC1C0B6848B0EE490AF0EECC
:10F19000690A0421784400F082FB53EC192B51ECEE
:10F1A000100BFDF7E1FA53EC182BFDF736FA41ECA2
:10F1B0001E0B51EC190B08F059FD41EC180B5C4883
:10F1C0009FED5DABA04222DC53EC1E2B51EC1C0BDF
:10F1D000FDF73CFB41EC100B51EC180B8DED000BD7
:10F1E00053EC102BFDF7C0FA53EC182BFDF715FA72
:10F1F00053EC1A2BFDF7B8FA53EC1B2BFDF7AEFAC4
:10F2000053EC1D2BFDF7ADFA41EC100B5FE08DEDDB
:10F21000008B002000909DED000B51EC180B53EC7F
:10F22000102BFDF7FAF99DED000B41EC1D0B53EC93
:10F23000102B51EC100BFDF797FA53EC192BFDF73F
:10F2400090FA53EC1D2BFDF701FB41EC190B53EC2D
:10F250001E2B51EC1C0BFDF7F9FA41EC1C0B53EC87
:10F260001A2B51EC190BFDF77FFA53EC1B2BFDF712
:10F2700078FA41EC190B53EC1A2B51EC180BFDF7F3
:10F2800073FA53EC1C2BFDF76FFA53EC192BFDF7B7
:10F2900065FA9DED000B41EC180B53EC1A2B51EC69
:10F2A000100BFDF761FA9FED269B53EC192BFDF730
:10F2B00058FA41EC100B51EC180B53EC102BFDF7E6
:10F2C0004DFA53EC192BFDF74CFA41EC100B002DC5
:10F2D0003FF7C0AE51EC100B81F00041CAE60000D0
:10F2E0000000F03F00000000075C143326A6913CAC
:10F2F000182D4454FB21F93F0000F07F000000006E
:10F3000000000000000000000000E03F00000000DE
:10F31000000000000000F03FC4A50000D2A50000DE
:10F32000000000000000E03F12A5000020A5000042
:10F330003333EF3F000000000000000000000040F9
:10F34000182D4454FB21E93F70B59F482DED020B69
:10F350002DED068B079D25F00044A0421DDC9B4847
:10F36000844202DC0FD1069868B19DED060B53EC88
:10F37000102B51EC100BFDF750F9BDEC068B02B0D1
:10F3800041EC100B70BD002DCCBF9FED910B9FED9C
:10F39000920BBDEC068B02B070BD9148A04215DD0A
:10F3A0009048A042D8BF4FF0FF3440DD9DED060BE2
:10F3B00051EC100BFFF7F6FD042808BF00F0ECFA43
:10F3C0009DED060BBDEC068B02B070BD9DED060BEE
:10F3D00051EC100B04F048FD41EC100B82488DED10
:10F3E000060B9FED838BA0423CDD8348A0421FDDCE
:10F3F00000249FED839B51EC100B53EC192BFDF770
:10F400000CF99DED060B41EC1A0B53EC192B51EC4A
:10F41000100BFDF7A9F953EC182BFDF79FF953ECEE
:10F420001A2BFDF713FA41EC100B8DED060B49E09A
:10F43000012453EC182B51EC100BFDF7EEF89DED69
:10F44000060B41EC190B53EC182B51EC100BFDF78C
:10F4500085F953EC192BFDF7F9F941EC100B8DED03
:10F46000060B2FE06848A0421FDD02249FED689B39
:10F4700051EC100B53EC192BFDF776F953EC182BCC
:10F48000FDF7CBF89DED060B41EC180B53EC192B57
:10F4900051EC100BFDF762F953EC182BFDF7D6F980
:10F4A00041EC100B8DED060B0CE053EC102B0324FC
:10F4B0009FED590B51EC100BFDF7C8F941EC100B07
:10F4C0008DED060B9DED060B53EC102B51EC100B44
:10F4D000FDF74AF941EC180B53EC182BFDF744F9F2
:10F4E00041EC190B4E480621B0EE490AF0EE690ACC
:10F4F000784400F0D4F953EC182B51EC100BFDF7C5
:10F5000033F941EC180B4748B0EE490AF0EE690AAE
:10F510000521784400F0C3F953EC192B51EC100B82
:10F52000FDF722F941EC100B51EC180B53EC102BAA
:10F53000002C0EDAFDF771F89DED061B53EC112B34
:10F54000FDF712F99DED061B53EC112BFDF709F9A0
:10F5500035E0FDF762F89DED061B53EC112BFDF72E
:10F5600003F941EC100B3048784400EBC40090EDF7
:10F57000001B51EC100B53EC112BFDF7EFF89DED38
:10F58000061B53EC112BFDF7E9F841EC110B274852
:10F59000784400EBC40090ED000B51EC110B53ECE0
:10F5A000102BFDF7DEF841EC100B002DA2BFBDECD7
:10F5B000068B02B070BD51EC100B81F0004141ECA4
:10F5C000100BFFE600000000000010440000F07F78
:10F5D000182D4454FB21F93F182D4454FB21F9BF49
:10F5E0000000DC3F0000203E0000F33F0000000070
:10F5F000000000000000F03F0000E63F00000000B7
:10F6000000000000000000400080034000000000F7
:10F61000000000000000F83F000000000000F0BF04
:10F620004CA2000002A200008CA1000044A1000036
:10F6300070B52DED040B2DED028B82B0DDE90534A4
:10F64000DDF81CC062422CF00041224341EAD27531
:10F650005F4A049E23F00040954205D87542354329
:10F6600040EAD575954210D99DED060B53EC102B51
:10F670009DED040B51EC100BFCF7CFFF41EC100B90
:10F6800002B0BDEC028B04B070BDACF14055A5F1E9
:10F690007F6525430BD0022505EAAC7545EAD37595
:10F6A00006439FED4D8B9FED4E2B07D010E09DED57
:10F6B000040B51EC100B01F0D9F939E0002D14BF07
:10F6C000012D9DED040BDBD0022D34D0032D37D05E
:10F6D0000C439FED451B9FED460B0AD0914218D17C
:10F6E000904209D121F0804120F08040079105909F
:10F6F0000FE0002BC4DA10E03F4C7C44002D08BF23
:10F7000094ED000BBCD0012D0CD0022D13D0032D95
:10F7100016D0904219D1002BB2DAB0EE410AF0EEC9
:10F72000610AADE794ED000B51EC100B81F0004144
:10F7300041EC100BA4E7B0EE480AF0EE680A9FE730
:10F74000B0EE420AF0EE620A9AE7401A00153C2831
:10F7500017DCBCF1000FBCBF10F13C0F9FED280B74
:10F760000FDB9DED060B53EC102B9DED040B51ECC4
:10F77000100BFDF76BF804F077FB01F077F941EC23
:10F78000100B002D8DED000B3FF47AAF012D10D042
:10F79000022D9FED1D0B53EC102B9DED000B51EC3A
:10F7A000100B0ED0FCF7DAFF53EC182BFCF7D6FF4A
:10F7B000BEE710EE900A80F0004001909DED000B36
:10F7C0005EE7FCF7CBFF53EC182BFCF7CAFFAFE763
:10F7D0000000F07F00000000182D4454FB21094078
:10F7E000182D4454FB2109C0182D4454FB21F9BFA6
:10F7F000182D4454FB21F93F72A0000000000000C6
:10F800000000000000000000075C143326A6A13CA5
:10F810002DED020B019820F0004001909DED000BB2
:10F8200002B0704700B52DED048BB0EE408AF0EECB
:10F83000608A83B051EC180BFDF73DFA41EC190BCF
:10F8400019EE100A19EE901A8DED009B002818BFD2
:10F850000120084320F00040C0F17F6000F1E0404B
:10F86000C00F14D018EE101A18EE900A8DED008B10
:10F87000002918BF0121084320F00040C0F17F603B
:10F8800000F1E040C00F04BF012000F0A5F8B0EE89
:10F89000490A03B0F0EE690ABDEC048B00BD70B5F7
:10F8A00004462DED028B4D1E00EBC500B0EE408AE4
:10F8B000F0EE608A90ED000B35F0060017D053ECA7
:10F8C000182B51EC100BFCF74FFF41EC100B6D1E89
:10F8D00004EBC50090ED001B51EC100B53EC112B09
:10F8E000FCF79BFE41EC100B35F00600E7D1022D32
:10F8F00036D0042D1CD0062D1CBFBDEC028B70BD74
:10F9000053EC182B51EC100BFCF72EFF94ED0A1B57
:10F9100053EC112BFCF781FE53EC182BFCF724FF62
:10F9200094ED080B53EC102BFCF777FE41EC100B19
:10F9300053EC182B51EC100BFCF716FF94ED060B53
:10F9400053EC102BFCF769FE53EC182BFCF70CFF63
:10F9500094ED041B53EC112BFCF75FFE41EC100BF4
:10F9600053EC182B51EC100BFCF7FEFE94ED020B40
:10F9700053EC102BFCF751FE53EC182BFCF7F4FE64
:10F9800094ED000B53EC102BFCF747FEBDEC028B03
:10F9900041EC100B70BD00009FED050B10B553EC52
:10F9A000102B51EC100BFCF7DFFE41EC100B10BDDF
:10F9B000000000000000001002E008C8121F08C18B
:10F9C000002AFAD170477047002001E001C1121FE0
:10F9D000002AFBD170470000014908607047000011
:10F9E000042400202DE9FF5FDDE90220010DDDF890
:10F9F00038B0024310D10F9801244CA2012808D03E
:10FA0000002100980F9BC0E90021C0E90243BDE836
:10FA1000FF9F6FEA0B01F4E7A1F2FF3144F61050AB
:10FA200041430D140F9801280ED0A5EB0B00401C8C
:10FA30004FF000043E4EDFF8FC90B0F1000AA04603
:10FA400005DACAF1000717E0CBF10000F0E707463E
:10FA500012E0F80707D02246334640464946FCF7F5
:10FA600083FE804689462246334610461946FCF7F7
:10FA70007BFE04460E467F10002FEAD1DDE902012D
:10FA8000BAF1000F42464B4602DAFCF76DFE01E088
:10FA9000FCF7DCFE04460E460022274BFCF7CEFFA7
:10FAA00003D84FF0FF30014607E00022234B2046E9
:10FAB0003146FCF7B2FDFDF74FF9102409E0002CA8
:10FAC0000ADB0A220023FCF7FFFF019B30321A55A4
:10FAD000641E50EA0102F2D1641C019AC4F11103C0
:10FAE00014440F9A012A09D00122084301D15B4531
:10FAF0000FDD4FF0000205F101050DE0084303D1D1
:10FB0000A3EB0B056D1E09E000204FF0110B0F90C9
:10FB100088E701DA00226D1E002A83D000980F9931
:10FB2000C0E90231C0E9004571E700003000000083
:10FB3000000024400000F03F0000F0430000E03FE0
:10FB40002DE9FF4F95B09B4689460646002512E2F7
:10FB5000252878D10024761CF94A274601210594EE
:10FB60003378203B01FA03F0104202D00443761CA4
:10FB7000F6E730782A2811D06FF02F033078A0F103
:10FB80003002092A16D8059A44F0020402EB8202D8
:10FB900003EB42021044761C0590EFE759F8042B62
:10FBA0000592002A03DA504244F40054059044F0D0
:10FBB0000204761C30782E2816D116F8010F44F076
:10FBC00004042A280DD06FF02F023078A0F1300302
:10FBD000092B09D807EB870302EB4303C718761CF0
:10FBE000F3E759F8047B761C30786C280FD006DCDC
:10FBF0004C2817D068280DD06A2814D104E0742846
:10FC000010D07A280FD10DE044F400140AE044F437
:10FC1000801401E044F440147278824202D1761CD0
:10FC200004F58014761C307866280BD013DC582835
:10FC300077D009DC002875D04528F6D04628F4D0C6
:10FC400047281AD19FE118E0632835D0642879D07D
:10FC5000652812D197E1702873D008DC6728F1D0AD
:10FC600069286FD06E280DD06F2806D1B5E07328B3
:10FC70002CD0752875D0782874D05A46179990479B
:10FC80006D1C76E1C4F30250022809D003280DD080
:10FC9000D9F8001004280DD00D6009F1040968E1BD
:10FCA000D9F80010EA17C1E90052F6E7D9F80010B8
:10FCB0000D80F2E70D70F0E719F8041B8DF80010C5
:10FCC00000208DF80100EA46012003E059F804AB5A
:10FCD0004FF0FF3061074FF0000102D40DE008F152
:10FCE00001018846B9420FDA8045F8DB1AF808109E
:10FCF0000029F4D108E008F1010188468142FADBCD
:10FD00001AF808100029F6D105985B46A0EB080701
:10FD100021463846179A00F09EFA284400EB080561
:10FD200007E04DE02BE10DE01AF8010B5A46179958
:10FD30009047B8F10108F7D25B4621463846179A3A
:10FD400014E142E00A220092C4F302524FF0000A8A
:10FD5000022A08D059F804CB032A4FEAEC710AD0E2
:10FD60000DE029E02AE009F1070121F00702F2E89D
:10FD700002C1914609E00FFA8CFC4FEAEC71042AAB
:10FD800003D14FFA8CFC4FEAEC71002907DA0A46DE
:10FD90000021DCF1000C61EB02012D2202E02205C2
:10FDA00004D52B228DF80420012203E0E20701D0C4
:10FDB0002022F7E7904653E00A2102E010220DE0EE
:10FDC00010214FF0000A00910BE010224FF0000AC2
:10FDD00044F004040827009203E008224FF0000AD0
:10FDE0000092C4F30252022A05D059F804CB002134
:10FDF000032A08D009E009F1070121F00702F2E81F
:10FE000002C1914605E01FFA8CFC042A01D10CF0D6
:10FE1000FF0C4FF00008220722D5702827D0009B46
:10FE200083F0100353EA0A0309D15CEA010206D009
:10FE300030228DF804208DF8050002229046009BA8
:10FE400083F0080353EA0A030AD15CEA010201D1F4
:10FE5000620705D530228DF804204FF001087F1E7F
:10FE6000582809D037A003900EA8029013E0402232
:10FE70008DF804200122E1E737A0F4E753466046FD
:10FE8000009AFCF721FE84460398825C0298A0F158
:10FE90000100029002705CEA0100EFD1029806A90D
:10FEA000A1EB000000F1200A600702D524F48034A1
:10FEB00000E00127574502DDA7EB0A0000E0002023
:10FEC00000EB0A01009005984144A0EB0100059069
:10FED000E00306D45B462146179A059800F0BBF96B
:10FEE0000544002706E001A85A46C05D17999047CF
:10FEF0006D1C7F1C4745F6DBE0030CD55B462146B5
:10FF0000179A059800F0A7F9054404E030205A46F6
:10FF1000179990476D1C0099481E00900029F5DC48
:10FF200008E0029802995A460078491C02911799F4
:10FF300090476D1CBAF10001AAF1010AF1DC6BE1F6
:10FF400009280100303132333435363738396162AF
:10FF50006364656600000000303132333435363773
:10FF600038394142434445460000000000F060F942
:10FF7000054406F10106307800287FF4E9AD19B098
:10FF80002846BDE8F08F620700D4062709F1070272
:10FF900022F0070CFCE80223E14603F000485FEA88
:10FFA000080C02D00FF27C2C0DE05FEA045C02D555
:10FFB0000FF2742C07E05FEAC47C02D00FF26C2CC5
:10FFC00001E0AFF2700C4FF0FF3823F00043CDF8A2
:10FFD00050C065280CD006DC452809D046281DD025
:10FFE00047283ED13EE0662818D0672839D139E04D
:10FFF0000021112F01DB112000E0781CCDE9000168
:020000040002F8
:1000000006A90EA8FFF7EEFCDDE90F010E9A039199
:100010000021009207F1010A04914EE04FF00040E8
:100020000097CDE9011006A90EA8FFF7DBFCDDE97A
:100030000F0203920E9B11990022DDF80CA0009391
:10004000049219B907F1010100EB010AB7EB0A00AC
:1000500004D4C0F1FF3007F1010A0490AAEB0700B5
:10006000019046E0012F00DA01270021112F01DD68
:10007000112000E03846CDE9000106A90EA8FFF7DF
:10008000B1FCDDE90F010E9A039100210491009269
:10009000BA4621070CD40399514500DA8A46BAF1D1
:1000A000010F05DD009AAAF10101515C302908D049
:1000B000B84202DA10F1040F06DA0121CDE901108D
:1000C00017E0AAF10101E9E7002805DC04990144E1
:1000D0000491AAEB000102E0411C514500DD8A4673
:1000E0000499A0EB010000F1010001904FF00040E5
:1000F0000290200704D40198504501DBCDF804801C
:1001000000208DF84F0002980DF14F07B0F1004F1D
:1001100025D02B200E9002984FF0020800280CDA10
:10012000404202902D200E9007E00A210298FCF731
:10013000B5FC3031029007F8011DB8F10001A8F1BB
:100140000108F2DC02980028EFD1791E0E980870A1
:10015000307800F0200040F0450007F8020D12A8AA
:10016000A0EB070000F107081498007800B1012007
:1001700000EB0A01019801EBE07105984144A0EB06
:100180000100A0F101000590E00306D45B46214682
:10019000179A059800F05FF805441498007820B18C
:1001A0005A461799904705F10105E00323D55B46B0
:1001B0002146179A059800F04EF805441BE0049874
:1001C000002807DBDDE90301884203DD0098405C7D
:1001D000179901E0179930205A46904704986D1CF2
:1001E000401C04900198401E019004D12E205A46D4
:1001F000179990476D1CBAF10001AAF1010ADEDCE3
:1002000005E017F8010B5A46179990476D1CB8F195
:100210000001A8F10108F4DC5B462146179A059815
:10022000A4E600002D0000002B00000020000000CC
:100230002DE9F041044600251E461746880405D4E2
:1002400006E039462020B04705F10105641EF8D5C7
:100250002846BDE8F0812DE9F041044600251E4600
:100260009046C80301D5302700E02027880405D533
:1002700006E041463846B04705F10105641EF8D551
:100280002846BDE8F08130B58FB0002405460794BC
:100290009DF81C001C2120F00F00401C20F0F000F5
:1002A00010308DF81C009DF81D0020F00F00401C40
:1002B00020F0F00010308DF81D009DF81E0020F099
:1002C0000600801C8DF81E006846FCF782F99DF838
:1002D0000000019440F010008DF8000007A8CDE95F
:1002E00004400394069428788DF83A004FF6A370E2
:1002F000ADF838000D949DF83400142120F00F0063
:10030000401C20F0F00010308DF834009DF83500CE
:1003100020F00F00401C20F0F00010308DF8350068
:100320009DF8360020F00600801C20F0180040F0F8
:1003300001008DF8360008A8FCF74BF90EA80890CC
:100340000DA809900120ADF828001420ADF82A402E
:10035000ADF82C00688805F1140308AA6946A2DFED
:100360000FB030BD38B56B4624220421642006F05E
:100370004FFC17A0FEF706FE00246D461AA0295D6B
:10038000FEF700FE641C042CF8DB18A0FEF7FAFD53
:100390009DF80000164CB2280BD19DF80100B22840
:1003A00007D19DF80200B22803D19DF80300B228BE
:1003B00006D0104910A0FEF7E5FD0020207138BDE1
:1003C0000C4913A0FEF7DEFD0120207138BD0000AE
:1003D0000D0A546865207265616420616464726509
:1003E00073733A5B30780000257820005D0D0A00B9
:1003F00080200020D89202002573206C6F77706FE8
:10040000776572206D6F64652E2E2E0D0A00000038
:100410002573206E6F726D616C206D6F64652E2E7A
:100420002E0D0A002DE9FC5F002516880746158071
:10043000406B14468946A8464FF00C0A11234FF032
:10044000020B98B101784846032E48D380F800B0DB
:100450002288521C92B2228083542288521C92B26B
:10046000228009F802102088401C20803A6BDAB103
:100470002088494600F11205B54230D80B54208837
:100480001023401C80B220800B542088401C208008
:100490000F202388155C401ECD54238840B25B1C7E
:1004A00023800028F5DA454697F82E0030B1334610
:1004B0002246494604F060F8050011D197F82D0056
:1004C00030B132462146484600F082FE050007D191
:1004D000B87820B32088C846001DB04202D95046E3
:1004E000BDE8FC9F684679DF0028F9D12188032008
:1004F00008F8010020881921401C80B2208008F8EB
:1005000000102088401C80B2208000EB0801BDF85C
:10051000000008F03FFD0146208808442080F8785C
:10052000B8B1228897F90310D31C4846B342D6D8F5
:1005300000F802B022880123521C92B22280835418
:100540002288521C92B2228009F802102088401C96
:1005500020807868B8B1218890F90020CB1C4846EB
:10056000B342BCD800F801B021880A23491C89B2E3
:10057000218043542188491C89B2218009F8012037
:100580002088401C2080388950B1CDE900464B4678
:100590000622022107F1080008F064FD05009FD142
:1005A000388A50B1CDE900464B460722032107F1B6
:1005B000100008F057FD050092D1388B50B1CDE9FD
:1005C00000464B461522142107F1180008F04AFD99
:1005D000050085D1386A30B133462246494603F0DA
:1005E000FBF80500DBD1786A30B133462246494634
:1005F00004F0B4FD0500D2D197F82C0038B1334691
:1006000022464946384607F069FA0500C7D13878CE
:1006100038B1334622464946384604F081FF05008A
:10062000BDD128465CE710B501220221002001F06F
:1006300069FD08B1072810D107220221012001F02D
:1006400061FD08B1072808D100210A22084601F0FF
:1006500059FD08B1072800D1002010BDBFF34F8F0E
:1006600004480168044A01F4E06111430160BFF3EA
:100670004F8FFEE70CED00E00400FA050EB50021F7
:100680000091CDE901106A4644F20100FFF7E6FF50
:100690000EBD10B58268C3689A1A03D003F04CFCF3
:1006A000002010BD052010BD29B112B1531E134208
:1006B00003D0092070470E2070470160838000211D
:1006C0008160C1600846704710B58268C3689A1A95
:1006D00083889A4203D803F039FC002010BD04201F
:1006E00010BD000038B50C46074BA268097802EB34
:1006F000420253F82250054A126A0092024604F15F
:1007000008002369A84738BD58440020E022002093
:10071000074910B50A7802EB820201EB8201091D3C
:10072000FFF7E0FFBDE81040042007F029BA000001
:100730008C430020401A20F07F401060002070475A
:10074000024909680160002070470000041501405B
:10075000074B9B6823B12AB120B10068037C1BB111
:10076000082070470720704741744261002070479D
:10077000C42300202DE9F0478046994614460F46D1
:1007800090074FF0000634D11C4D8CB306F0ACFB43
:100790000320C5F81490287004F11800002107EB1D
:1007A0004703AC6004EBC102491C16705670977089
:1007B000506000EBC3000329F4DBEE606E70AE7096
:1007C0001420FEF74BF906211420FEF76BF91420D4
:1007D000FEF750F90A49C1F8008006211120FEF702
:1007E00061F90748001F006828610020BDE8F08714
:1007F00001E00720FAE7AE60FBE70000C423002019
:10080000081501402DE9F843DFF86C900D461746B6
:10081000D9F80810044649B344B3052D02D2072085
:10082000BDE8F883606908B3607C012820D0002609
:1008300008F0E6FBD9F80810804601EBC8006946CD
:1008400008F0FCFBB0B1012101700C49446009685B
:100850000830E2C0D9F8081001EBC8009DF800107C
:1008600041701420FEF712F90020D9E70820D7E7DD
:100870002E46DDE70420D3E7C42300200415014001
:10088000F8B5124E0446B168E1B1DCB16069C8B197
:100890000027277408F0B4FB0546B068694600EBF2
:1008A000C50008F0CBFB78B1022101704460B0684C
:1008B0009DF8001000EBC50041701420FEF7E6F82B
:1008C0003846F8BD0820F8BD0420F8BDC423002038
:1008D00010B5044609488168C2688088511A81426F
:1008E00006D10121064805F0BDF808B1052010BD6C
:1008F0002146BDE810400148FFF7CBBEF44200207E
:10090000D922002070B50446234888B01E460D0049
:10091000426035D0A888296882B22048FFF7C4FE1B
:1009200000282ED1A889A96882B21C481030FFF790
:10093000BBFE002825D1202219496846FBF730FE6E
:10094000A0680690207900B101208DF814008DF880
:100950001C60607900B10E208DF81500E0780290DF
:10096000A078039020780190607800900D49684647
:1009700005F02EF8002804D19DF81D0018B104E000
:10098000072008B070BD05F0B3F803480121401CF2
:1009900005F068F8F5E70000D8220020F4420020B6
:1009A00080930200098D020010B501460948FFF747
:1009B0008BFE04000CD105F0CDF948B90649054875
:1009C000FFF767FE20B90121034805F039F9044615
:1009D000204610BD04430020D82200202DE9F0411C
:1009E000044600781E4F012505FA00F038602068A3
:1009F00005F001FA0021606805F0F4F919481A4B76
:100A0000DFF8648090F81CC01748174E1C3308F1BB
:100A100008086430D4F818C0311D08F10402C3F886
:100A200000C0637D94F814C043EA0C030360D4E96A
:100A3000000308601360207D01280ED10021A0680A
:100A400005F0D0F9207B85403D60E06805F0D3F9E2
:100A5000D4E902103060C8F80010BDE8F081000051
:100A6000080500506C4300200825004010B541ECFB
:100A7000100BFEF769FC51EC100B10BD30B58FB0B8
:100A80000024054607949DF81C001C2120F00F004F
:100A9000401C20F0F00010308DF81C009DF81D0067
:100AA00020F00F00401C20F0F00010308DF81D00E9
:100AB0009DF81E0020F00600801C8DF81E00684680
:100AC000FBF787FD9DF80000019440F010008DF8C1
:100AD000000007A8CDE904400394069428788DF817
:100AE0003A004FF6A570ADF838000D949DF834002B
:100AF000142120F00F00401C20F0F00010308DF881
:100B000034009DF8350020F00F00401C20F0F0006C
:100B100010308DF835009DF8360020F00600801C5E
:100B200020F0180040F001008DF8360008A8FBF70F
:100B300050FD0EA808900DA809900120ADF82800DE
:100B40001420ADF82A40ADF82C00688805F1240384
:100B500008AA6946A2DF0FB030BD000077B585B0A6
:100B60000E46050010D07EB1B5F86400A0F57F41B7
:100B7000FF390BD095F8670040B1BDF81C00142870
:100B800006D9072008B070BD0E20FBE70820F9E762
:100B90000020009001900290039096ED000B51EC24
:100BA000100BFBF7ECFE154C207040F30720607033
:100BB00096ED020B51EC100BFBF7E1FEA07040F339
:100BC0000720E07096ED040B51EC100BFBF7D7FEFD
:100BD000207140F3072060710620ADF81C00A88A40
:100BE000ADF8000007A8CDE9020401208DF802004D
:100BF000B5F864006946A6DFC4E700006E21002056
:100C0000F0B50C4693B01F210726ADF80010ADF8E3
:100C10000410002750B1C17849070DD56A4602A9D2
:100C2000FFF700FC002808D102AD02E00025ADF876
:100C300000706CB1E07810B1304613B0F0BD01AA7D
:100C40000AA92046FFF7EEFB0028F6D10AAA02E027
:100C50000022ADF80470BDF80400C3B2BDF8000076
:100C6000C1B2284672DFE8E770B50D460499164612
:100C7000040040D0F6B3414800224271C0E903317C
:100C8000242231463E48FBF78BFC00F0BBF83C4980
:100C90003431A1F1100001602031816038215C38CD
:100CA000FBF797FC3648217838380170A1788170BD
:100CB000E178C17061784170D4E90412C0E904128E
:100CC000D4E90212C0E90212D4E90612C0E9061200
:100CD000616AD1B100F1AC0100F1B80241628A60F1
:100CE000636A1B880B80616A436A89889980002146
:100CF000436A07E0FFE70E2070BD666AB668765C5F
:100D00005654491C9E888E42F7D8A16AD9B11C4A14
:100D1000AC32A2F10C018A608162A36A9B888B804D
:100D2000A16A836A098819800021836A04E0A66A9F
:100D3000B668765C5654491C9E888E42F7D894F863
:100D40002C1080F82C10216A49B10C491431016231
:100D5000226A52884A80216A026A09881180616881
:100D600021B10649891D4160616841602946BDE89D
:100D7000704003483838FFF743BF00003821002097
:100D80006437002010B502881D4C102A18D00021AD
:100D9000112A1BD01B2A18D1007A002815D160799E
:100DA000012820D0022824D0032824D004280CD1E4
:100DB0002171E2680846002A07D0BDE810401047BC
:100DC000817D012901D18088208110BD61708088DA
:100DD00021898842F9D1012006E021690029F4D057
:100DE000BDE810400847022000F014F80028F4D1B4
:100DF00010BD0320F8E7032020710420F4E7000071
:100E00003821002002480021816181838177704769
:100E1000382100202DE9F04F744C87B00026607116
:100E200006A8069605F064FC0127082801D030B911
:100E300003E006A803F0B2FA18B9069808B12770C3
:100E4000C0E0FFF7DFFF6A4DDFF8A0814FF0020A34
:100E5000687808F118084FF0030B10B16079012889
:100E600006D0A87858B16079012801D002281FD196
:100E7000E16819B1E7700820884700E0E670607902
:100E8000012806D1687840B108F1010005F00EFC98
:100E900018B16079022802D00AE084F805A0A87889
:100EA00020B108F1010005F001FC08B984F805B093
:100EB000287B4FF0040920B96079032801D184F818
:100EC0000590287E20B96079042801D166712671C9
:100ED000E16841B16079032801D0042803D1287862
:100EE00008B16078C0B1A67018216846FBF771FBA5
:100EF0008DF8006001968DF80860039660790128EE
:100F00000ED0022816D03A4E2436A6F15C070328EC
:100F10001DD004284CD13AE0A77007208847E3E7AA
:100F2000ADF81260CDF804808DF80070ADF8106057
:100F300027713FE0CDF804808DF800702889ADF866
:100F40001200A888ADF8100084F804A032E0A88A46
:100F5000ADF81200288AADF810002548243008F0BA
:100F6000A6F918B1287808B1607810B184F804B0F7
:100F70001EE01F488DF808A0039687F80390002113
:100F80003838FFF73DFE00281DD105202BE0A88B47
:100F9000ADF81000288CADF812001548243008F088
:100FA00086F918B1287808B1607878B184F804908F
:100FB000607918B1684673DF002804D1E16809B18F
:100FC00020798847002007B0BDE8F08F08488DF8E9
:100FD00008A0039687F8039000213838FFF710FE29
:100FE0000028F0D106202071E2E70000382100201F
:100FF0006437002007B584B078B1B0F86420A2F55A
:101000007F43FF3B0BD090F8682042B1BDF8182019
:10101000142A06D9072007B000BD0E20FBE70820E0
:10102000F9E700220092019202920392828C0391CE
:1010300006A90291ADF8002001218DF80210B0F848
:1010400064006946A6DFE6E707B584B078B1B0F87A
:101050006420A2F57F43FF3B0BD090F86D2042B196
:10106000BDF81820142A06D9072007B000BD0E20AD
:10107000FBE70820F9E70022009201920292039216
:1010800030F8442F039106A90291ADF80020012108
:101090008DF80210008C6946A6DFE6E707B584B03C
:1010A000E8B1E1B1B0F86420A2F57F43FF3B18D06E
:1010B00090F86A20AAB10022009201920292039253
:1010C000828B039106A90291ADF8002001218DF8D1
:1010D0000210B0F864006946A6DF07B000BD0E201C
:1010E000FBE70820F9E7000070B5054601461C2221
:1010F0000F48FBF755FA0F4C00262670286830B1D0
:10110000016861604068A060201D7ADF02E0094844
:10111000001D7BDF00280AD14FF6FF7060806670EB
:10112000BDE87040044A00210448FFF711BB70BDC0
:101130005038002058210020A18F02004093020067
:1011400070B51E4C068800251B49E289102E15D06B
:101150001B4B112E1CD0122E29D0502E17D130F837
:10116000061F914213D14189022910D1007B10F052
:10117000010F11D0BDE8704002F074BB83884B8032
:101180008369CB60C06908614D70002AF2D070BDE0
:101190004FF6FF7048804D701868FFF771FB00280C
:1011A000F5D0A1690029F2D0BDE8704008478268F7
:1011B000CA60C0680861DDE758210020503800206F
:1011C0004093020001480068FFF75ABB40930200B9
:1011D0007CB5054608880C460930904201D90C20A0
:1011E0007CBD684671DF0028FAD121880820685448
:1011F00020881B21401C80B2208029542088401C5C
:1012000080B220802844DDF801100160BDF805108F
:1012100081802088801D80B220809DF8001001B15F
:10122000012129542088401C208000207CBD000022
:1012300030B58FB005461C216846FBF7CAF900247B
:101240009DF80000019440F002008DF80000039426
:1012500004940594069428788DF836004FF6AC7007
:10126000ADF834000C949DF83000142120F00F00EC
:10127000401C20F0F00010308DF830009DF8310057
:1012800020F00F00401C20F0F00010308DF83100ED
:101290009DF8320020F00600001D20F0180040F0FC
:1012A00001008DF8320007A8FBF793F90DA807900D
:1012B0000CA808900120ADF82400ADF828000648DD
:1012C000ADF826400B90688805F15C0307AA6946D3
:1012D000A2DF0FB030BD00008420002010B504460E
:1012E000FFF72EFF2146074800F00EFA204604F0D3
:1012F000C9FE2046FFF746FD2046BDE8104000F03D
:1013000075BE00004C3600207FB502A871DF08B121
:10131000FFF7B4F936A0FDF735FE3BA0FDF732FE2E
:10132000002402AD2819417838A0FDF72BFE641C7B
:10133000062CF7DB37A0FDF725FE37A0FDF722FED0
:101340004FF4967004F03AF96B46042208216420A9
:1013500005F0B8FC4FF47A74204604F02FF99DF89C
:101360000600122803D19DF80700342806D02BA0D0
:10137000FDF708FE204604F021F97FBD33A0FDF7FC
:1013800001FE00246E4637A0315DFDF7FBFD641CB5
:10139000062CF8DB34A0FDF7F5FD9DF800008DF874
:1013A0000A009DF801008DF80B009DF802008DF8F1
:1013B0000C009DF803008DF80D0002A9002070DFDD
:1013C00008B1FFF75BF902A871DF08B1FFF756F922
:1013D00026A0FDF7D7FD00242819417821A0FDF7AC
:1013E000D1FD641C062CF7DB26A0FDF7CBFD7FBDED
:1013F00054686520626C65206D616320616464726D
:101400006573730D0A0000000D0A2300252E325863
:1014100000000000230D0A000D0A00000D5468654D
:101420002075736572206973206E6F742073657404
:1014300020746865206E6577204D414320616464A7
:10144000726573732E2E2E0D0A00000054686520FD
:101450007265616420616464726573733A5B203005
:1014600078000000257820005D0D0A005468652092
:101470006E657720616464726573733A5B203078BF
:10148000000000005D0D0A0D0A00000030B58FB0AD
:10149000054600241C216846FBF79BF89DF80000D8
:1014A000019440F01C008DF800000394049405940E
:1014B000069428788DF836004FF6AA70ADF83400FF
:1014C0000C949DF83000142120F00F00401C20F0F7
:1014D000F00010308DF830009DF8310020F00F0042
:1014E000401C20F0F00010308DF831009DF83200E3
:1014F00020F00600801C20F0180040F001008DF85C
:10150000320007A8FBF765F80DA807900CA8089013
:101510000120ADF824001420ADF82640ADF82800D5
:10152000688805F14C0307AA6946A2DF0FB030BDF9
:1015300007B584B078B1B0F86420A2F57F43FF3BD3
:101540000BD090F86E2042B1BDF81820142A06D9AD
:10155000072007B000BD0E20FBE70820F9E70022B6
:10156000009201920292039230F84C2F039106A947
:101570000291ADF8002001218DF80210008B694620
:10158000A6DFE6E730B58FB0054600241C2168468B
:10159000FBF71FF89DF80000019440F01C008DF847
:1015A0000000039404940594069428788DF836007E
:1015B0004FF6AB70ADF834000C949DF83000142158
:1015C00020F00F00401C20F0F00010308DF83000AB
:1015D0009DF8310020F00F00401C20F0F00010308A
:1015E0008DF831009DF8320020F00600801C20F0BC
:1015F000180040F001008DF8320007A8FAF7E9FF63
:101600000DA807900CA808900120ADF82400142024
:10161000ADF82640ADF82800688805F1540307AA04
:101620006946A2DF0FB030BD042904D1002A02D1DF
:1016300001490120C87070472023002038B50D46AD
:1016400004005FD0002D5DD04FF6FF70A4F8640059
:1016500028682067002084F86600012020708DF83B
:1016600002004FF6A070ADF80000A21C69460120F0
:10167000A0DF002845D12946204605F0FDFC0028C2
:101680003FD12946204607F0D7F9002839D129460D
:101690002046FEF7F8FD002833D12946204606F003
:1016A000F0FC00282DD129462046FFF7E7F9002855
:1016B00027D12946204600F0A8F9002821D1294643
:1016C000204607F085FD00281BD12946204606F05C
:1016D00069FC002815D12946204600F027F900288A
:1016E0000FD129462046FFF7D1FE002809D129460F
:1016F0002046FFF747FF002803D129462046FFF781
:1017000097FD38BD0E2038BD002810D000290ED01E
:101710000A88102A05D0112A05D0502A07D104F0D2
:1017200085BD898801E04FF6FF71A0F8641070470D
:1017300007B584B078B1B0F86420A2F57F43FF3BD1
:101740000BD090F8662042B1BDF81820142A06D9B3
:10175000072007B000BD0E20FBE70820F9E70022B4
:1017600000920192029203928289039106A902914A
:10177000ADF8002001218DF80210B0F86400694630
:10178000A6DFE6E707B584B078B1B0F86420A2F52B
:101790007F43FF3B0BD090F86C2042B1BDF818207E
:1017A000142A06D9072007B000BD0E20FBE7082049
:1017B000F9E700220092019202920392828F039134
:1017C00006A90291ADF8002001218DF80210B0F8B1
:1017D00064006946A6DFE6E707B584B078B1B0F8E3
:1017E0006420A2F57F43FF3B0BD090F86B2042B101
:1017F000BDF81820142A06D9072007B000BD0E2016
:10180000FBE70820F9E7002200920192029203927E
:10181000828E039106A90291ADF8002001218DF876
:101820000210B0F864006946A6DFE6E70A4810B582
:1018300082684FF480011AB1016821F4800100E050
:101840000648016006F0FEF9002803D0BDE810400C
:10185000FEF714BF10BD0000D445002080E100E079
:1018600000B5184887B00023406805904822164903
:1018700005A806F0CDF908B1FEF700FF6A46012180
:10188000002006F0AFF908B1FEF7F8FE0F4806F0A9
:10189000D7F808B1FEF7F2FE684606F099F908B1EC
:1018A000FEF7ECFE0A4806F089F908B1FEF7E6FEFD
:1018B000084806F0D1F9002801D0FEF7DFFE07B096
:1018C00000BD0000BC92020028240020E81F002078
:1018D000DD1202008D7F020007B584B078B1B0F848
:1018E0006420A2F57F43FF3B0BD090F8692042B102
:1018F000BDF81820142A06D9072007B000BD0E2015
:10190000FBE70820F9E7002200920192029203927D
:10191000828D039106A90291ADF8002001218DF876
:101920000210B0F864006946A6DFE6E730B58FB074
:101930000024054607949DF81C001C2120F00F0090
:10194000401C20F0F00010308DF81C009DF81D00A8
:1019500020F00F00401C20F0F00010308DF81D002A
:101960009DF81E0020F00600801C8DF81E006846C1
:10197000FAF72FFE9DF80000019440F010008DF85A
:10198000000007A8CDE904400394069428788DF858
:101990003A004FF6A970ADF838000D949DF8340068
:1019A000142120F00F00401C20F0F00010308DF8C2
:1019B00034009DF8350020F00F00401C20F0F000AE
:1019C00010308DF835009DF8360020F00600801CA0
:1019D00020F0180040F001008DF8360008A8FAF752
:1019E000F8FD0EA808900DA809900120ADF8280078
:1019F0001420ADF82A40ADF82C00688805F14403A6
:101A000008AA6946A2DF0FB030BD30B58FB0002400
:101A1000054607949DF81C001C2120F00F00401C77
:101A200020F0F00010308DF81C009DF81D0020F013
:101A30000F00401C20F0F00010308DF81D009DF8C4
:101A40001E0020F00600801C8DF81E006846FAF784
:101A5000C0FD9DF80000019440F010008DF80000DA
:101A600007A8CDE904400394069428788DF83A003D
:101A70004FF6A670ADF838000D949DF8340014218F
:101A800020F00F00401C20F0F00010308DF83400E2
:101A90009DF8350020F00F00401C20F0F0001030C1
:101AA0008DF835009DF8360020F00600801C20F0EF
:101AB000180040F001008DF8360008A8FAF789FDFB
:101AC0000EA808900DA809900120ADF82800142058
:101AD000ADF82A40ADF82C00688805F11C0308AA6F
:101AE0006946A2DF0FB030BD2DE9F04FC44D0E4660
:101AF0002DED0A8B89B007469FEDC2AB9FEDC3BBAE
:101B00009FEDC49B9FEDC5CB05F180089FEDC58B74
:101B100090ED000BAC6853EC1A2B51EC100BFAF75C
:101B200023FECDE9060198ED060B53EC1C2B51EC7E
:101B3000100BFAF719FECDE9040198ED080B53ECF0
:101B40001C2B51EC100BFAF70FFECDE9020198EDBA
:101B50000A0B53EC1C2B51EC100BFAF705FEDFF8C7
:101B6000CC82CDE90001DDE9060153EC1B2B08F125
:101B7000F00908F5966A08F5B46B002C7CD0FAF7EA
:101B8000F3FD41EC1C0B08EBC400069010ED020BBA
:101B900053EC192B51EC100BFAF7E6FD53EC1C2B10
:101BA000FAF73BFD41EC100B069853EC1A2B80ED35
:101BB000000B97ED020B51EC100BFAF7D5FD53EC2F
:101BC0001B2BFAF7D1FD09EBC40741EC1A0B17EDFB
:101BD000020B53EC192B51EC100BFAF7C5FD53EC2B
:101BE0001A2BFAF71AFD41EC100B53EC182B87ED6A
:101BF000000BDDE904010AEBC40741EC190B17EDFA
:101C0000020B51EC100BFAF7AFFD53EC192BFAF75E
:101C100004FD41EC100B53EC182B87ED000BDDE9B4
:101C200002010BEBC40741EC190B17ED020B51EC51
:101C3000100BFAF799FD53EC192BFAF7EEFC41EC77
:101C4000100B53EC182B87ED000BDDE9000141EC84
:101C5000190B08F5D26000EBC40717ED020B51EC2D
:101C6000100BFAF781FD53EC192BFAF7D6FC41EC77
:101C7000100B87ED000B00E051E06D4896ED000B76
:101C800000EBC40080ED000B694896ED020BF030CC
:101C900000EBC40080ED000B664896ED040B00EBF2
:101CA000C400641C80ED000BAC601E2C32D100F02F
:101CB00041FBA86808EBC00111ED020B09EBC00164
:101CC00085ED1C0B11ED020B0AEBC00185ED1E0B1F
:101CD00011ED020B0BEBC00185ED0E0B11ED020BAC
:101CE000554985ED100B01EBC000002110ED020BF2
:101CF00085ED120BA960E869401CE861B0F1004F66
:101D000000D9E9614D48016829638188A9868079F5
:101D100085F8360009B0BDEC0A8BBDE8F08FFAF704
:101D200023FD95ED1C0B41EC1C0B53EC192B51ECD6
:101D3000100BFAF719FD53EC1C2BFAF76EFC41EC73
:101D4000100B53EC1A2B88ED000B97ED020B51ECA6
:101D5000100BFAF709FD53EC1B2BFAF705FD95ED77
:101D60001E0B41EC1A0B53EC192B51EC100BFAF72C
:101D7000FBFC53EC1A2BFAF750FC41EC100B53EC24
:101D8000182B89ED000BDDE9040195ED0E0B41ECFC
:101D9000190B51EC100BFAF7E7FC53EC192BFAF77F
:101DA0003CFC41EC100B53EC182B8AED000BDDE9E9
